{
  "transactions": [
    {
      "hash": "0xc0880e7beb2f082ce0e3fe5aa5fe27467ff225e0f8b37f126476c86926120c39",
      "transactionType": "CREATE",
      "contractName": "TicketNFT",
      "contractAddress": "0x95bd8d42f30351685e96c62eddc0d0613bf9a87a",
      "function": null,
      "arguments": null,
      "transaction": {
        "from": "0x23618e81e3f5cdf7f54c3d65f7fbc0abf5b21e8f",
        "gas": "0x323377",
        "value": "0x0",
        "input": "0x608034620003565760406001600160401b03828201818111848210176200029e578252600c835260206b456c6c69707469436865636b60a01b81850152825191838301838110828211176200029e5784526003835262454c4360e81b8284015284518181116200029e5780620000765f546200035a565b96601f9788811162000326575b508490888311600114620002be575f92620002b2575b50508160011b915f199060031b1c1916175f555b82519081116200029e5780600193620000c785546200035a565b87811162000263575b508390878311600114620001ff575f92620001f3575b50505f19600383901b1c191690831b1782555b3315620001dc5760068054336001600160a01b03198216811790925593946c7065732f7376673f736565643d60981b949091906001600160a01b03167f8be0079c531659141344cd1fd0a4f28419497f9722a3daafe3b4186f6b6457e05f80a382600755826008556200016e600d546200035a565b818111620001b7575b5050605b600d55600d5f525f207f68747470733a2f2f6170692e64696365626561722e636f6d2f372e782f73686181550155516129429081620003ae8239f35b6002620001d492600d5f52845f20920160051c8201910162000395565b5f8062000177565b8251631e4fbdf760e01b81525f6004820152602490fd5b015190505f80620000e6565b90859350601f19831691845f52855f20925f5b878282106200024c575050841162000233575b505050811b018255620000f9565b01515f1960f88460031b161c191690555f808062000225565b838501518655899790950194938401930162000212565b6200028d90865f52855f208980860160051c82019288871062000294575b0160051c019062000395565b5f620000d0565b9250819262000281565b634e487b7160e01b5f52604160045260245ffd5b015190505f8062000099565b5f8080528681209350601f198516905b878282106200030f575050908460019594939210620002f6575b505050811b015f55620000ad565b01515f1960f88460031b161c191690555f8080620002e8565b6001859682939686015181550195019301620002ce565b6200034f905f8052865f208a80860160051c82019289871062000294570160051c019062000395565b5f62000083565b5f80fd5b90600182811c921680156200038a575b60208310146200037657565b634e487b7160e01b5f52602260045260245ffd5b91607f16916200036a565b818110620003a1575050565b5f81556001016200039556fe6080806040526004361015610012575f80fd5b5f3560e01c90816301ffc9a714611ec25750806306fdde0314611e1b578063081812fc14611ddf578063095ea7b314611cfe5780630a15fa8b14611c495780630b79143014611ba45780631af32d7814611b7a57806323b872dd14611b635780632b7ac3f314611b3b5780632cd1d35c14611aff5780633ccfd60b14611a8d57806342842e0e14611a6057806350b4471214611a0f57806352c55db9146119e65780635437988d146119a35780636352211e146119735780636d1884e01461190157806370a08231146118ab578063715018a61461185057806374f82e30146117ba5780637dc379fa146117185780638647ca76146115b85780638da5cb5b1461159057806395d89b41146114c6578063a22cb4651461141c578063a718205114611085578063b88d4fde1461101a578063c27a500d14610ef0578063c87b56dd146108e7578063d082e381146108aa578063e13102e914610868578063e985e9c514610816578063f2fde38b1461078a578063f5f00d841461026d5763ff99a0631461019d575f80fd5b34610269576020806003193601126102695761023f906004356101bf816124f9565b50805f52600a825260405f20604051906101d882611fd7565b606060ff600383549384865260018101548887015260028101546040870152015416920191151582525f526009835261025a61021660405f2061244c565b9161024c835195604081860151950151925115159460405198899860a08a5260a08a0190611f4e565b9188830390890152611f4e565b908582036040870152611f4e565b91606084015260808301520390f35b5f80fd5b346102695760a0366003190112610269576004356001600160401b0381116102695761029d9036906004016121ec565b906024356001600160401b038111610269576102bd9036906004016121ec565b6044929192356001600160401b038111610269576102e261032a9136906004016121ec565b6102ea612533565b61031e600854966102fa886124ac565b6008556040519561030a87611ff2565b610315368b8a6121b6565b875236916121b6565b602085015236916121b6565b604082015260643560608201526084356080820152600160a0820152825f52600960205260405f209080518051906001600160401b0382116105ed5781906103728554611f9f565b601f811161073d575b50602090601f83116001146106d5575f926106ca575b50508160011b915f199060031b1c19161782555b60208101518051906001600160401b0382116105ed5781906103ca6001860154611f9f565b601f811161067a575b50602090601f831160011461060c575f92610601575b50508160011b915f199060031b1c19161760018301555b60408101518051906001600160401b0382116105ed576104236002850154611f9f565b601f81116105a9575b509160209693918695938890601f83116001146105085760a07f42e6867e52299b45991308391cccb9ee79466d194059ff10fc15c2d88f0ea061979694846104bd95608098956005955f926104fd575b50508160011b915f199060031b1c19161760028501555b606081015160038501558681015160048501550151151591019060ff801983541691151516179055565b8260405193849260608452816060850152848401375f828201840152608435888301526064356040830152601f01601f19168101030190a2604051908152f35b015190508e8061047c565b60028594939298979695015f52895f20905f5b601f198416811061058f57506104bd936001846005947f42e6867e52299b45991308391cccb9ee79466d194059ff10fc15c2d88f0ea0619b9c60a09560809b9a98601f19811610610577575b505050811b016002850155610493565b01515f1960f88460031b161c191690558e8080610567565b818a01518355988b01988a98506001909201918b0161051b565b600285015f5260205f20601f840160051c8101602085106105e6575b601f830160051c820181106105db57505061042c565b5f81556001016105c5565b50806105c5565b634e487b7160e01b5f52604160045260245ffd5b0151905087806103e9565b9250600185015f5260205f20905f935b601f198416851061065f576001945083601f19811610610647575b505050811b016001830155610400565b01515f1960f88460031b161c19169055878080610637565b8181015183556020948501946001909301929091019061061c565b909150600185015f5260205f20601f840160051c8101602085106106c3575b90849392915b601f830160051c820181106106b55750506103d3565b5f815585945060010161069f565b5080610699565b015190508780610391565b9250845f5260205f20905f935b601f1984168510610722576001945083601f1981161061070a575b505050811b0182556103a5565b01515f1960f88460031b161c191690558780806106fd565b818101518355602094850194600190930192909101906106e2565b909150845f5260205f20601f840160051c810160208510610783575b90849392915b601f830160051c8201811061077557505061037b565b5f815585945060010161075f565b5080610759565b34610269576020366003190112610269576107a3611f73565b6107ab612533565b6001600160a01b039081169081156107fe57600654826bffffffffffffffffffffffff60a01b821617600655167f8be0079c531659141344cd1fd0a4f28419497f9722a3daafe3b4186f6b6457e05f80a3005b604051631e4fbdf760e01b81525f6004820152602490fd5b346102695760403660031901126102695761082f611f73565b610837611f89565b9060018060a01b038091165f52600560205260405f2091165f52602052602060ff60405f2054166040519015158152f35b3461026957602036600319011261026957610881612533565b6004355f908152600960205260409020600501805460ff818116151660ff19909116179055005b005b34610269575f366003190112610269576007545f1981019081116108d357602090604051908152f35b634e487b7160e01b5f52601160045260245ffd5b34610269576020806003193601126102695780600435610906816124f9565b50805f52600a825260405f20906040519161092083611fd7565b805492838152600193606060ff600360018601549589860196875260028101546040870152015416920191151582525f526009855261096160405f2061244c565b9061096b846126ab565b926040519384888101975f90600d549061098482611f9f565b918c6001821691825f14610ed1575050600114610e8b575b5050906109d59282651d1a58dad95d60d21b600694526109c58c83519384918785019101611f2d565b0103601919810187520185612043565b868351966109e2876126ab565b958551916109ef896126ab565b91610a0e610a0760408a51978b01519a01519b6126ab565b96516126ab565b965115610e66578b604051610a2281612028565b6004815263155cd95960e21b82820152995b6040519d8e9d8e683d913730b6b2911d1160b91b838201528151926029849201920191610a6092611f2d565b8d01602981016a202d205469636b6574202360a81b9052815191828460348401920191610a8c92611f2d565b0161088b60f21b95866034830152603682017f226465736372697074696f6e223a224f6666696369616c206576656e7420746990526056820168031b5b2ba103337b9160bd1b905280518093605f8401920191610ae892611f2d565b019084605f830152681134b6b0b3b2911d1160b91b6061830152519182606a8301610b1292611f2d565b0182606a820152606c81017f2265787465726e616c5f75726c223a2268747470733a2f2f656c6c69707469639052608c81016f6865636b2e636f6d2f7469636b65742f60801b9052815191828d609c8401920191610b6f92611f2d565b0190609c8201526d2261747472696275746573223a5b60901b609e82015260ac81017f7b2274726169745f74797065223a224576656e74222c2276616c7565223a22009052815191828b60cb8401920191610bc992611f2d565b019062089f4b60ea1b8094838260cb8196015260ce81017f7b2274726169745f74797065223a2244617465222c2276616c7565223a2200009052815191828d60ec8401920191610c1892611f2d565b01968160ec89015260ef88017f7b2274726169745f74797065223a224c6f636174696f6e222c2276616c7565229052611d1160f11b61010f89015261011197815191828d8b8401920191610c6b92611f2d565b01968701527f7b2274726169745f74797065223a225469636b6574204944222c2276616c756561011487015262111d1160e91b6101348701528051610137969091610cbd908390898401908d01611f2d565b01948501527f7b2274726169745f74797065223a225469636b6574204e756d626572222c227661013a8501526630b63ab2911d1160c91b61015a8501528051610161949091610d13908390878401908b01611f2d565b019283015261016482017f7b2274726169745f74797065223a22537461747573222c2276616c7565223a229052610184918151918287858401920191610d5892611f2d565b019061227d60f01b908201526101868101615d7d60f01b9052036101688101825261018801610d879082612043565b60405160608101918183106001600160401b038411176105ed57610dfc92604052604082527f4142434445464748494a4b4c4d4e4f505152535455565758595a616263646566848301527f6768696a6b6c6d6e6f707172737475767778797a303132333435363738392b2f60408301526127ed565b90610e4e603d60405180947f646174613a6170706c69636174696f6e2f6a736f6e3b6261736536342c00000085830152610e3e81518092878686019101611f2d565b810103601d810185520183612043565b610e62604051928284938452830190611f4e565b0390f35b8b604051610e7381612028565b600681526541637469766560d01b8282015299610a34565b8b9250600d5f525f805160206128ed833981519152905f915b838310610eb95750505082010182600661099c565b8054838c018601528a95508d94909201918101610ea4565b60ff19168d52831515909302850190920192508491506006905061099c565b34610269575f366003190112610269576008545f19908181019081116108d357610f19816124ba565b91610f276040519384612043565b818352610f33826124ba565b60209290601f19015f5b818110610ffe57505060019160015b82811115610fb55750505060405191808301818452845180915260408401918060408360051b8701019601925f905b838210610f885786880387f35b90919293948380610fa4839a603f198b8203018652895161213b565b999701959493919091019101610f7b565b805f969496526009855260405f2090828101918183116108d357610ff692610fdf610ff09261244c565b610fe982896124d1565b52866124d1565b506124ac565b949294610f4c565b849061100b969496612419565b82828701015201949294610f3d565b3461026957608036600319011261026957611033611f73565b61103b611f89565b90604435606435926001600160401b0384116102695736602385011215610269576110736108a89436906024816004013591016121b6565b9261107f838383612219565b3361255f565b60403660031901126102695760043561109c611f89565b90805f52602091600983526110b360405f2061244c565b60a08101511561140a57825f52600b845260405f2054608082015111156113f8576060015134106113e657600754916110eb836124ac565b600755805f52600b845260405f2061110381546124ac565b80915561116060405161111581611fd7565b83815260038782018481526040830142815260608401915f8352895f52600a8b5260405f209451855551600185015551600284015551151591019060ff801983541691151516179055565b60405161116c8161200d565b5f81526001600160a01b03848116949085156113ce57865f52600288528060405f2054161515806113c6575b6113a0575b865f526002885260405f2054168686821515928361136f575b5f82815260038c5260408082208054600101905584825260028d52812080546001600160a01b031916841790557fddf252ad1be2c89b69c2b068fc378daa952ba7f163c4a11628f55a4df523b3ef9080a461135757859187913b611248575b507f4fe0f5bb11eb6ab81c428fb83261719e5b22f84b3e1942cd491c3777504bb8519192604051908152a4604051908152f35b915050604051868180611283630a85bd0160e11b958683523360048401525f60248401528a6044840152608060648401526084830190611f4e565b03815f895af15f9181611317575b506112c75786856112a06123ea565b80519290836112c257604051633250574960e11b815260048101849052602490fd5b019050fd5b6001600160e01b031916036112fe5783857f4fe0f5bb11eb6ab81c428fb83261719e5b22f84b3e1942cd491c3777504bb851611215565b604051633250574960e11b815260048101849052602490fd5b9091508781813d8311611350575b61132f8183612043565b8101031261026957516001600160e01b031981168103610269579088611291565b503d611325565b6040516339e3563760e11b81525f6004820152602490fd5b5f8381526004602052604080822080546001600160a01b031916905582825260038d52902080545f190190556111b6565b600a885260ff600360405f200154161561119d57604051633b0653eb60e01b8152600490fd5b506001611198565b604051633250574960e11b81525f6004820152602490fd5b60405163cd1c886760e01b8152600490fd5b6040516352df9fe560e01b8152600490fd5b6040516301e1837960e31b8152600490fd5b3461026957604036600319011261026957611435611f73565b6024359081151590818303610269576001600160a01b03169182156114ad5761147f90335f52600560205260405f20845f5260205260405f209060ff801983541691151516179055565b6040519081527f17307eab39ab6107e8899845ad3d59bd9653f200f220920489ca2b5937696c3160203392a3005b604051630b61174360e31b815260048101849052602490fd5b34610269575f366003190112610269576040515f600182600154926114ea84611f9f565b92838352602094856001821691825f14611570575050600114611515575b50610e4e92500383612043565b84915060015f527fb10e2d527612073b26eecdfd717e6a320cf44b4afac2b0732d9fcbe2b7fa0cf6905f915b858310611558575050610e4e935082010185611508565b80548389018501528794508693909201918101611541565b60ff191685820152610e4e95151560051b85010192508791506115089050565b34610269575f366003190112610269576006546040516001600160a01b039091168152602090f35b3461026957602080600319360112610269576001600160401b036004358181116102695736602382011215610269576115fb9036906024816004013591016121b6565b91611604612533565b82519182116105ed57611618600d54611f9f565b601f81116116c8575b50602090601f831160011461165d575081925f92611652575b50505f19600383901b1c191660019190911b17600d55005b01519050828061163a565b90601f19831693600d5f525f805160206128ed833981519152925f905b8682106116b05750508360019510611698575b505050811b01600d55005b01515f1960f88460031b161c1916905582808061168d565b8060018596829496860151815501950193019061167a565b600d5f525f805160206128ed833981519152601f840160051c8101916020851061170e575b601f0160051c01905b8181106117035750611621565b5f81556001016116f6565b90915081906116ed565b34610269576020366003190112610269576004355f606060405161173b81611fd7565b8281528260208201528260408201520152611755816124f9565b505f52600a602052608060405f2060405161176f81611fd7565b815491828252600181015460208301908152606060ff600360028501549460408701958652015416930192151583526040519384525160208401525160408301525115156060820152f35b34610269575f36600319011261026957604051600d545f826117db83611f9f565b91828252602093600190856001821691825f146115705750506001146118085750610e4e92500383612043565b849150600d5f525f805160206128ed833981519152905f915b858310611838575050610e4e935082010185611508565b80548389018501528794508693909201918101611821565b34610269575f36600319011261026957611868612533565b600680546001600160a01b031981169091555f906001600160a01b03167f8be0079c531659141344cd1fd0a4f28419497f9722a3daafe3b4186f6b6457e08280a3005b34610269576020366003190112610269576001600160a01b036118cc611f73565b1680156118e9575f526003602052602060405f2054604051908152f35b6040516322718ad960e21b81525f6004820152602490fd5b346102695760203660031901126102695760043561191d612419565b5080158015611967575b611955575f526009602052610e6261194160405f2061244c565b60405191829160208352602083019061213b565b604051630c93477d60e41b8152600490fd5b50600854811015611927565b346102695760203660031901126102695760206119916004356124f9565b6040516001600160a01b039091168152f35b34610269576020366003190112610269576119bc611f73565b6119c4612533565b600c80546001600160a01b0319166001600160a01b0392909216919091179055005b34610269575f366003190112610269576008545f1981019081116108d357602090604051908152f35b34610269576020366003190112610269576004355f52600a602052608060405f2080549060018101549060ff6003600283015492015416916040519384526020840152604083015215156060820152f35b34610269576108a8611a7136612106565b9060405192611a7f8461200d565b5f845261107f838383612219565b34610269575f36600319011261026957611aa5612533565b5f80808060018060a01b036006541647905af1611ac06123ea565b5015611ac857005b60405162461bcd60e51b815260206004820152600f60248201526e1dda5d1a191c985dc819985a5b1959608a1b6044820152606490fd5b3461026957602036600319011261026957600435611b1c816124f9565b505f52600a602052602060ff600360405f200154166040519015158152f35b34610269575f36600319011261026957600c546040516001600160a01b039091168152602090f35b34610269576108a8611b7436612106565b91612219565b34610269576020366003190112610269576004355f52600b602052602060405f2054604051908152f35b34610269576020366003190112610269576004355f526009602052611c1760405f20611bcf81612064565b90611bdc60018201612064565b611be860028301612064565b91611c33600382015493611c2560ff60056004860154950154169460405198899860c08a5260c08a0190611f4e565b9088820360208a0152611f4e565b908682036040880152611f4e565b9260608501526080840152151560a08301520390f35b3461026957602036600319011261026957600c546001600160a01b03906004359082163303611ced57805f52600a60205260ff600360405f20015416611cdb57805f52600a602052600360405f2001600160ff198254161790557f4f9c6210874b14266ea0f64418a0f7403a875226eae9483f5d9cd7663234db9a6020611ccf836124f9565b604051428152941693a3005b604051630869773360e41b8152600490fd5b6040516282b42960e81b8152600490fd5b3461026957604036600319011261026957611d17611f73565b602435611d23816124f9565b33151580611dcc575b80611da3575b611d8b576001600160a01b039283169282918491167f8c5be1e5ebec7d5bd14f71427d1e84f3dd0314c0f7b2291e5b200ac8c7c3b9255f80a45f90815260046020526040902080546001600160a01b0319169091179055005b60405163a9fbf51f60e01b8152336004820152602490fd5b5060018060a01b0381165f52600560205260405f20335f5260205260ff60405f20541615611d32565b506001600160a01b038116331415611d2c565b3461026957602036600319011261026957600435611dfc816124f9565b505f526004602052602060018060a01b0360405f205416604051908152f35b34610269575f366003190112610269576040515f80549082611e3c83611f9f565b91828252602093600190856001821691825f14611570575050600114611e695750610e4e92500383612043565b5f808052859250907f290decd9548b62a8d60345a988386fc84ba6bc95484008f6362f93160ef3e5635b858310611eaa575050610e4e935082010185611508565b80548389018501528794508693909201918101611e93565b34610269576020366003190112610269576004359063ffffffff60e01b8216809203610269576020916380ac58cd60e01b8114908115611f1c575b8115611f0b575b5015158152f35b6301ffc9a760e01b14905083611f04565b635b5e139f60e01b81149150611efd565b5f5b838110611f3e5750505f910152565b8181015183820152602001611f2f565b90602091611f6781518092818552858086019101611f2d565b601f01601f1916010190565b600435906001600160a01b038216820361026957565b602435906001600160a01b038216820361026957565b90600182811c92168015611fcd575b6020831014611fb957565b634e487b7160e01b5f52602260045260245ffd5b91607f1691611fae565b608081019081106001600160401b038211176105ed57604052565b60c081019081106001600160401b038211176105ed57604052565b602081019081106001600160401b038211176105ed57604052565b604081019081106001600160401b038211176105ed57604052565b90601f801991011681019081106001600160401b038211176105ed57604052565b9060405191825f825461207681611f9f565b908184526020946001916001811690815f146120e457506001146120a6575b5050506120a492500383612043565b565b5f90815285812095935091905b8183106120cc5750506120a493508201015f8080612095565b855488840185015294850194879450918301916120b3565b925050506120a494925060ff191682840152151560051b8201015f8080612095565b6060906003190112610269576001600160a01b0390600435828116810361026957916024359081168103610269579060443590565b9060a08061217c61216a612158865160c0875260c0870190611f4e565b60208701518682036020880152611f4e565b60408601518582036040870152611f4e565b9360608101516060850152608081015160808501520151151591015290565b6001600160401b0381116105ed57601f01601f191660200190565b9291926121c28261219b565b916121d06040519384612043565b829481845281830111610269578281602093845f960137010152565b9181601f84011215610269578235916001600160401b038311610269576020838186019501011161026957565b6001600160a01b0391821692909183156113ce57815f52602092600284528260409583875f2054161515806123e2575b6123b6575b815f526002865283875f2054169533151580612324575b50600290876122f3575b825f5260038152885f2060018154019055835f5252865f20816bffffffffffffffffffffffff60a01b825416179055857fddf252ad1be2c89b69c2b068fc378daa952ba7f163c4a11628f55a4df523b3ef5f80a416928383036122d25750505050565b6064945051926364283d7b60e01b8452600484015260248301526044820152fd5b5f84815260046020526040812080546001600160a01b03191690558881526003825289902080545f1901905561226f565b9192509080612375575b1561233c579084915f612265565b868587612359576024915190637e27328960e01b82526004820152fd5b604491519063177e802f60e01b82523360048301526024820152fd5b50338614801561239a575b8061232e5750845f52600481523384885f2054161461232e565b50855f5260058152865f20335f52815260ff875f205416612380565b9050600a855260ff6003875f200154166123d157839061224e565b8551633b0653eb60e01b8152600490fd5b506001612249565b3d15612414573d906123fb8261219b565b916124096040519384612043565b82523d5f602084013e565b606090565b6040519061242682611ff2565b5f60a0836060815260606020820152606060408201528260608201528260808201520152565b9060405161245981611ff2565b60a060ff6005839561246a81612064565b855261247860018201612064565b602086015261248960028201612064565b604086015260038101546060860152600481015460808601520154161515910152565b5f1981146108d35760010190565b6001600160401b0381116105ed5760051b60200190565b80518210156124e55760209160051b010190565b634e487b7160e01b5f52603260045260245ffd5b5f818152600260205260409020546001600160a01b031690811561251b575090565b60249060405190637e27328960e01b82526004820152fd5b6006546001600160a01b0316330361254757565b60405163118cdaa760e01b8152336004820152602490fd5b9291803b61256f575b5050505050565b604051630a85bd0160e11b8082526001600160a01b039586166004830152928516602482015260448101939093526080606484015290921692602090829081906125bd906084830190611f4e565b03815f875af15f9181612634575b5061260257826125d96123ea565b80519190826125fb57604051633250574960e11b815260048101839052602490fd5b6020915001fd5b6001600160e01b0319160361261c57505f80808080612568565b60249060405190633250574960e11b82526004820152fd5b9091506020813d602011612671575b8161265060209383612043565b8101031261026957516001600160e01b03198116810361026957905f6125cb565b3d9150612643565b906126838261219b565b6126906040519182612043565b82815280926126a1601f199161219b565b0190602036910137565b805f917a184f03e93ff9f4daa797ed6e38ed64bf6a1f010000000000000000808210156127df575b506d04ee2d6d415b85acef8100000000808310156127d0575b50662386f26fc10000808310156127c1575b506305f5e100808310156127b2575b50612710808310156127a3575b506064821015612793575b600a80921015612789575b60019081602161274260018701612679565b95860101905b612754575b5050505090565b5f19019083906f181899199a1a9b1b9c1cb0b131b232b360811b8282061a83530491821561278457919082612748565b61274d565b9160010191612730565b9190606460029104910191612725565b6004919392049101915f61271a565b6008919392049101915f61270d565b6010919392049101915f6126fe565b6020919392049101915f6126ec565b60409350810491505f6126d3565b9190918051156128d757805192600291600285018095116108d3576003948590046001600160fe1b03811681036108d35761282d9060029694961b612679565b9260208401928291835184019760208901928351945f85525b8a811061288a575050505060039394959650525106806001146128785760021461286e575090565b603d905f19015390565b50603d90815f19820153600119015390565b836004919b989b019a8b51600190603f9082828260121c16870101518453828282600c1c16870101518385015382828260061c168701015187850153168401015185820153019699612846565b5090506040516128e68161200d565b5f81529056fed7b6990105719101dabeb77144f2a3385c8033acd3af97e9423a695e81ad1eb5a264697066735822122044bea1e19bec52301b1c2a3b9d3ee8fee289e33e85ee156a00fa8e4d336c561564736f6c63430008180033",
        "nonce": "0x0",
        "chainId": "0x7a69"
      },
      "additionalContracts": [],
      "isFixedGasLimit": false
    },
    {
      "hash": "0xe0c5fcd93dc356c2de9b6a52e0a59e74ee940b77a676a422b578b5fffdc09775",
      "transactionType": "CREATE",
      "contractName": "TicketVerifier",
      "contractAddress": "0x98eddadcfde04dc22a0e62119617e74a6bc77313",
      "function": null,
      "arguments": [
        "0x95bD8D42f30351685e96C62EDdc0d0613bf9a87A"
      ],
      "transaction": {
        "from": "0x23618e81e3f5cdf7f54c3d65f7fbc0abf5b21e8f",
        "gas": "0xd4ce7",
        "value": "0x0",
        "input": "0x608034610122576001600160401b0390601f610b6b38819003918201601f19168301918483118484101761010e5780849260209460405283398101031261012257516001600160a01b038116908190036101225760018060a01b03195f5416175f5560405160208101907f8b73c3c69bb8fe3d512ecc4cf759cc79239f7b179b0ffacaa9a75d522b39400f82527f93ab398023282bbbe8643ec643d528b8278428194e3fcc84fe8324e9b3e1767a60408201527fc89efdaa54c0f20c7adf612882df0950f5a951637e0307cdcb4c672f298b8bc660608201524660808201523060a082015260a0815260c08101928184109084111761010e5782604052519020600255610a4490816101278239f35b634e487b7160e01b5f52604160045260245ffd5b5f80fdfe6080604090808252600480361015610015575f80fd5b5f3560e01c9182633644e5151461044a575081633b639e6f1461041057816389782d2e146103e4578163b35bfdc614610081575063b393391b14610057575f80fd5b3461007d575f36600319011261007d575f5490516001600160a01b039091168152602090f35b5f80fd5b823461007d573660031901610100811261007d5760801361007d57608036608319011261007d576044358042116103d6575f5482516331a9108f60e11b8152843581860181905260209590926001600160a01b0392602491889082908490829088165afa9081156103cc575f9161036d575b5083806100fe610494565b1691160361035e5761010e610494565b9186519584898801947f98bedf8cc3414a2996ce566792f72a2abcc6d18a5bd91475f7b33a653c5928bd8652878a8a0152166060880152608087015260643560a087015260a0865260c086019567ffffffffffffffff938188108589111761034c5761014090888a5282519020916002549260e082019361190160f01b855260e28301526101028201526042895201968088108589111761034c5787895251902095865f526001895260ff885f20541661034057506101cb610494565b87519060e4359060c4356101de84610464565b808452828c8501528a51928c84019182528b8401528a835260608301928084108885111761032e57838c5251902087169087160361032057506102279060a435608435896104aa565b1561031257855f5260018852865f20600160ff19825416179055835f541692833b1561007d575f8094848a5180978193630a15fa8b60e01b83528b888401525af1801561030857908895949392916102bc575b50505050917f763d86327afbecf1cb7d5b9fc69643f9198fd501b9cb37375f5ced29d52fc601926102a9610494565b1693825191825286820152a25160018152f35b90919280949550116102f7575050845283907f763d86327afbecf1cb7d5b9fc69643f9198fd501b9cb37375f5ced29d52fc60187808061027a565b604190634e487b7160e01b5f52525ffd5b88513d5f823e3d90fd5b8651638baa579f60e01b8152fd5b63145a1fdd60e31b81529050fd5b86604187634e487b7160e01b5f52525ffd5b637b63160160e11b8152fd5b83604184634e487b7160e01b5f52525ffd5b5084516330cd747160e01b8152fd5b9050873d89116103c5575b601f8101601f1916820167ffffffffffffffff8111838210176103b357899183918a528101031261007d5751838116810361007d57886100f3565b83604186634e487b7160e01b5f52525ffd5b503d610378565b87513d5f823e3d90fd5b5051630407b05b60e31b8152fd5b823461007d57602036600319011261007d57602091355f526001825260ff815f20541690519015158152f35b823461007d575f36600319011261007d57602090517f98bedf8cc3414a2996ce566792f72a2abcc6d18a5bd91475f7b33a653c5928bd8152f35b3461007d575f36600319011261007d576020906002548152f35b6040810190811067ffffffffffffffff82111761048057604052565b634e487b7160e01b5f52604160045260245ffd5b6024356001600160a01b038116810361007d5790565b90928315158061070c575b156106db57821515806106b1575b1561066c576104d181610727565b156106275770014551231950b75fc4402da1732fc9bebe198093069182156105e257839070014551231950b75fc4402da1732fc9bec019600181600196905b6105bc575050509181610582859461058a94610590976040519261053384610464565b7f79be667ef9dcbbac55a06295ce870b07029bfcdb2dce28d959f2815b16f8179884527f483ada7726a3c4655da4fbfc0e1108a8fd17b448a68554199c47d08ffb10d4b86020850152096107d3565b9387096107d3565b90610853565b805190811590816105af575b506105a8575f90081490565b5050505f90565b602091500151155f61059c565b818394959293166105d7575b8009869392821c919082610510565b9586829109956105c8565b60405162461bcd60e51b815260206004820152601a60248201527f6d6f64496e76657273653a204e4f545f494e5645525449424c450000000000006044820152606490fd5b60405162461bcd60e51b815260206004820152601760248201527f7075626c6963206b6579206e6f74206f6e2063757276650000000000000000006044820152606490fd5b60405162461bcd60e51b815260206004820152601f60248201527f696e76616c69642073202d206d616c6c6561626c65207369676e6174757265006044820152606490fd5b507f7fffffffffffffffffffffffffffffff5d576e7357a4501ddfe92f46681b20a08311156104c3565b60405162461bcd60e51b815260206004820152600960248201526834b73b30b634b2103960b91b6044820152606490fd5b5070014551231950b75fc4402da1732fc9bebe1984106104b5565b805190811580610778575b610772576401000003d01990818310801590610764575b6105a857600782602081930151948181800909089180091490565b508160208201511015610749565b50505f90565b50602081015115610732565b6401000003d0198091069081156105e2576001916401000003d219918391835b6107af575050505090565b8284166107c5575b8082910992821c92836107a4565b9381858192099490506107b7565b9190915f60206040516107e581610464565b828152015270014551231950b75fc4402da1732fc9bebe1990068060405161080c81610464565b5f81525f602082015293915b610820575050565b60019182821661083d575b8061083591610853565b911c80610818565b9361084b8561083592610853565b94905061082b565b60409182519161086283610464565b5f83525f6020809401528051801580610a03575b6109fb578251908115806109f0575b6109e75714806109cf575b6109bf5780518251808214806109b0575b1561097157505082810180511561096057516401000003d0198181920880156109455781806108d1855193610784565b92800960030909935b6401000003d019809383519051900883038381116109315783908187800908948251918685039385851161093157860151850393858511610931578593849251986109248a610464565b8952089009089082015290565b634e487b7160e01b5f52601160045260245ffd5b50505050905f90519161095783610464565b81835282015290565b505050905f90519161095783610464565b6401000003d019918203828111610931578291088015610945578484015190858401518303838111610931576109a78492610784565b920809936108da565b508483015185850151146108a1565b5050905f90519161095783610464565b5080830151828401516401000003d019910815610890565b50509250505090565b508484015115610885565b505091505090565b50838201511561087656fea2646970667358221220a94063290a48e09f46b3061f6039a9551630ddd6b3d8af22bdff108bac89e3e264736f6c6343000818003300000000000000000000000095bd8d42f30351685e96c62eddc0d0613bf9a87a",
        "nonce": "0x1",
        "chainId": "0x7a69"
      },
      "additionalContracts": [],
      "isFixedGasLimit": false
    },
    {
      "hash": "0xce4736055bdea95dd867701e59df3c9c484b92105ffd916e992966e2f3278f0e",
      "transactionType": "CALL",
      "contractName": "TicketNFT",
      "contractAddress": "0x95bd8d42f30351685e96c62eddc0d0613bf9a87a",
      "function": "setVerifier(address)",
      "arguments": [
        "0x98eDDadCfde04dC22a0e62119617e74a6Bc77313"
      ],
      "transaction": {
        "from": "0x23618e81e3f5cdf7f54c3d65f7fbc0abf5b21e8f",
        "to": "0x95bd8d42f30351685e96c62eddc0d0613bf9a87a",
        "gas": "0x1085c",
        "value": "0x0",
        "input": "0x5437988d00000000000000000000000098eddadcfde04dc22a0e62119617e74a6bc77313",
        "nonce": "0x2",
        "chainId": "0x7a69"
      },
      "additionalContracts": [],
      "isFixedGasLimit": false
    },
    {
      "hash": "0xcc0619b43d038f7c5eb2edace367964aa8303de81dafd1f497c83bc812a10172",
      "transactionType": "CALL",
      "contractName": "TicketNFT",
      "contractAddress": "0x95bd8d42f30351685e96c62eddc0d0613bf9a87a",
      "function": "createEvent(string,string,string,uint256,uint256)",
      "arguments": [
        "Motion Design Workshop 2025",
        "2026-04-20",
        "Creative Hall, Jaksel",
        "30000000000000000",
        "30"
      ],
      "transaction": {
        "from": "0x23618e81e3f5cdf7f54c3d65f7fbc0abf5b21e8f",
        "to": "0x95bd8d42f30351685e96c62eddc0d0613bf9a87a",
        "gas": "0x3931d",
        "value": "0x0",
        "input": "0xf5f00d8400000000000000000000000000000000000000000000000000000000000000a000000000000000000000000000000000000000000000000000000000000000e00000000000000000000000000000000000000000000000000000000000000120000000000000000000000000000000000000000000000000006a94d74f430000000000000000000000000000000000000000000000000000000000000000001e000000000000000000000000000000000000000000000000000000000000001b4d6f74696f6e2044657369676e20576f726b73686f7020323032350000000000000000000000000000000000000000000000000000000000000000000000000a323032362d30342d323000000000000000000000000000000000000000000000000000000000000000000000000000000000000000000000000000000000001543726561746976652048616c6c2c204a616b73656c0000000000000000000000",
        "nonce": "0x3",
        "chainId": "0x7a69"
      },
      "additionalContracts": [],
      "isFixedGasLimit": false
    },
    {
      "hash": "0x6668c00d6750ce6327af800b0d897cc3e4513fc2c6f65a25b75ae396d53ea241",
      "transactionType": "CALL",
      "contractName": "TicketNFT",
      "contractAddress": "0x95bd8d42f30351685e96c62eddc0d0613bf9a87a",
      "function": "createEvent(string,string,string,uint256,uint256)",
      "arguments": [
        "Indonesia Open: Finals",
        "2026-06-12",
        "Istora Senayan",
        "120000000000000000",
        "5000"
      ],
      "transaction": {
        "from": "0x23618e81e3f5cdf7f54c3d65f7fbc0abf5b21e8f",
        "to": "0x95bd8d42f30351685e96c62eddc0d0613bf9a87a",
        "gas": "0x39276",
        "value": "0x0",
        "input": "0xf5f00d8400000000000000000000000000000000000000000000000000000000000000a000000000000000000000000000000000000000000000000000000000000000e0000000000000000000000000000000000000000000000000000000000000012000000000000000000000000000000000000000000000000001aa535d3d0c000000000000000000000000000000000000000000000000000000000000000013880000000000000000000000000000000000000000000000000000000000000016496e646f6e65736961204f70656e3a2046696e616c7300000000000000000000000000000000000000000000000000000000000000000000000000000000000a323032362d30362d313200000000000000000000000000000000000000000000000000000000000000000000000000000000000000000000000000000000000e4973746f72612053656e6179616e000000000000000000000000000000000000",
        "nonce": "0x4",
        "chainId": "0x7a69"
      },
      "additionalContracts": [],
      "isFixedGasLimit": false
    },
    {
      "hash": "0xbb75c99af7abefaf9eaa1ec2b657494c4f2ffccd9605b2d51567deedfe0048b4",
      "transactionType": "CALL",
      "contractName": "TicketNFT",
      "contractAddress": "0x95bd8d42f30351685e96c62eddc0d0613bf9a87a",
      "function": "createEvent(string,string,string,uint256,uint256)",
      "arguments": [
        "Festival Kuliner Nusantara",
        "2026-02-30",
        "Lapangan Puputan, Bali",
        "15000000000000000",
        "200"
      ],
      "transaction": {
        "from": "0x23618e81e3f5cdf7f54c3d65f7fbc0abf5b21e8f",
        "to": "0x95bd8d42f30351685e96c62eddc0d0613bf9a87a",
        "gas": "0x3c903",
        "value": "0x0",
        "input": "0xf5f00d8400000000000000000000000000000000000000000000000000000000000000a000000000000000000000000000000000000000000000000000000000000000e0000000000000000000000000000000000000000000000000000000000000012000000000000000000000000000000000000000000000000000354a6ba7a1800000000000000000000000000000000000000000000000000000000000000000c8000000000000000000000000000000000000000000000000000000000000001a466573746976616c204b756c696e6572204e7573616e74617261000000000000000000000000000000000000000000000000000000000000000000000000000a323032362d30322d33300000000000000000000000000000000000000000000000000000000000000000000000000000000000000000000000000000000000164c6170616e67616e205075707574616e2c2042616c6900000000000000000000",
        "nonce": "0x5",
        "chainId": "0x7a69"
      },
      "additionalContracts": [],
      "isFixedGasLimit": false
    },
    {
      "hash": "0xd74592fcf7c6d15db97695f50cb1906d87ecdf08698715a40e1ee0e907b8a1d0",
      "transactionType": "CALL",
      "contractName": "TicketNFT",
      "contractAddress": "0x95bd8d42f30351685e96c62eddc0d0613bf9a87a",
      "function": "createEvent(string,string,string,uint256,uint256)",
      "arguments": [
        "Stand Up Comedy Special",
        "2026-02-28",
        "Teater Besar, TIM",
        "40000000000000000",
        "300"
      ],
      "transaction": {
        "from": "0x23618e81e3f5cdf7f54c3d65f7fbc0abf5b21e8f",
        "to": "0x95bd8d42f30351685e96c62eddc0d0613bf9a87a",
        "gas": "0x3c876",
        "value": "0x0",
        "input": "0xf5f00d8400000000000000000000000000000000000000000000000000000000000000a000000000000000000000000000000000000000000000000000000000000000e00000000000000000000000000000000000000000000000000000000000000120000000000000000000000000000000000000000000000000008e1bc9bf040000000000000000000000000000000000000000000000000000000000000000012c00000000000000000000000000000000000000000000000000000000000000175374616e6420557020436f6d656479205370656369616c000000000000000000000000000000000000000000000000000000000000000000000000000000000a323032362d30322d32380000000000000000000000000000000000000000000000000000000000000000000000000000000000000000000000000000000000115465617465722042657361722c2054494d000000000000000000000000000000",
        "nonce": "0x6",
        "chainId": "0x7a69"
      },
      "additionalContracts": [],
      "isFixedGasLimit": false
    },
    {
      "hash": "0x9ee2f705539543bf93b3fe7008ce7a83422278ee0f0248275bf15654b2a16109",
      "transactionType": "CALL",
      "contractName": "TicketNFT",
      "contractAddress": "0x95bd8d42f30351685e96c62eddc0d0613bf9a87a",
      "function": "createEvent(string,string,string,uint256,uint256)",
      "arguments": [
        "Yoga & Meditation Retreat",
        "2026-03-10",
        "Ubud Sanctuary",
        "80000000000000000",
        "20"
      ],
      "transaction": {
        "from": "0x23618e81e3f5cdf7f54c3d65f7fbc0abf5b21e8f",
        "to": "0x95bd8d42f30351685e96c62eddc0d0613bf9a87a",
        "gas": "0x39298",
        "value": "0x0",
        "input": "0xf5f00d8400000000000000000000000000000000000000000000000000000000000000a000000000000000000000000000000000000000000000000000000000000000e00000000000000000000000000000000000000000000000000000000000000120000000000000000000000000000000000000000000000000011c37937e08000000000000000000000000000000000000000000000000000000000000000000140000000000000000000000000000000000000000000000000000000000000019596f67612026204d656469746174696f6e205265747265617400000000000000000000000000000000000000000000000000000000000000000000000000000a323032362d30332d313000000000000000000000000000000000000000000000000000000000000000000000000000000000000000000000000000000000000e556275642053616e637475617279000000000000000000000000000000000000",
        "nonce": "0x7",
        "chainId": "0x7a69"
      },
      "additionalContracts": [],
      "isFixedGasLimit": false
    }
  ],
  "receipts": [
    {
      "status": "0x1",
      "cumulativeGasUsed": "0x269dbe",
      "logs": [
        {
          "address": "0x95bd8d42f30351685e96c62eddc0d0613bf9a87a",
          "topics": [
            "0x8be0079c531659141344cd1fd0a4f28419497f9722a3daafe3b4186f6b6457e0",
            "0x0000000000000000000000000000000000000000000000000000000000000000",
            "0x00000000000000000000000023618e81e3f5cdf7f54c3d65f7fbc0abf5b21e8f"
          ],
          "data": "0x",
          "blockHash": "0xf9ca2ae23654c1e2ac21d5a1cbff636259680687393bff08512b7edf974f3a8e",
          "blockNumber": "0x1",
          "blockTimestamp": "0x697d9c8d",
          "transactionHash": "0xc0880e7beb2f082ce0e3fe5aa5fe27467ff225e0f8b37f126476c86926120c39",
          "transactionIndex": "0x0",
          "logIndex": "0x0",
          "removed": false
        }
      ],
      "logsBloom": "0x00800000000000000000000000000000000000000000000000800000000000000000000000000400000000000000000000000000000000000000000000000000000000000000000000000000000000000001000000000000000000000000000000000000020000000000000000000800000000000000000000000000000000c00000000000000000000000024000000000000000000000000000000000000000000000000000000000000000000000000000000000000000000000000000000000000000000000000000000000000000000000000000000000000000000020000000000000000000000000000000000000000000000000000000008000000000",
      "type": "0x2",
      "transactionHash": "0xc0880e7beb2f082ce0e3fe5aa5fe27467ff225e0f8b37f126476c86926120c39",
      "transactionIndex": "0x0",
      "blockHash": "0xf9ca2ae23654c1e2ac21d5a1cbff636259680687393bff08512b7edf974f3a8e",
      "blockNumber": "0x1",
      "gasUsed": "0x269dbe",
      "effectiveGasPrice": "0x3b9aca01",
      "blobGasPrice": "0x1",
      "from": "0x23618e81e3f5cdf7f54c3d65f7fbc0abf5b21e8f",
      "to": null,
      "contractAddress": "0x95bd8d42f30351685e96c62eddc0d0613bf9a87a"
    },
    {
      "status": "0x1",
      "cumulativeGasUsed": "0xa3b28",
      "logs": [],
      "logsBloom": "0x00000000000000000000000000000000000000000000000000000000000000000000000000000000000000000000000000000000000000000000000000000000000000000000000000000000000000000000000000000000000000000000000000000000000000000000000000000000000000000000000000000000000000000000000000000000000000000000000000000000000000000000000000000000000000000000000000000000000000000000000000000000000000000000000000000000000000000000000000000000000000000000000000000000000000000000000000000000000000000000000000000000000000000000000000000000",
      "type": "0x2",
      "transactionHash": "0xe0c5fcd93dc356c2de9b6a52e0a59e74ee940b77a676a422b578b5fffdc09775",
      "transactionIndex": "0x0",
      "blockHash": "0x4110a9b075b334b35aa3940c71c053b5b2e0d72800f6b8bf9a0696332c2c3ecb",
      "blockNumber": "0x2",
      "gasUsed": "0xa3b28",
      "effectiveGasPrice": "0x35693df1",
      "blobGasPrice": "0x1",
      "from": "0x23618e81e3f5cdf7f54c3d65f7fbc0abf5b21e8f",
      "to": null,
      "contractAddress": "0x98eddadcfde04dc22a0e62119617e74a6bc77313"
    },
    {
      "status": "0x1",
      "cumulativeGasUsed": "0xb4c3",
      "logs": [],
      "logsBloom": "0x00000000000000000000000000000000000000000000000000000000000000000000000000000000000000000000000000000000000000000000000000000000000000000000000000000000000000000000000000000000000000000000000000000000000000000000000000000000000000000000000000000000000000000000000000000000000000000000000000000000000000000000000000000000000000000000000000000000000000000000000000000000000000000000000000000000000000000000000000000000000000000000000000000000000000000000000000000000000000000000000000000000000000000000000000000000",
      "type": "0x2",
      "transactionHash": "0xce4736055bdea95dd867701e59df3c9c484b92105ffd916e992966e2f3278f0e",
      "transactionIndex": "0x0",
      "blockHash": "0x120ffa260c023e3a3d6386c915871b69c63c0ab32a2c2168dacb0c4177a6836b",
      "blockNumber": "0x3",
      "gasUsed": "0xb4c3",
      "effectiveGasPrice": "0x2f087c86",
      "blobGasPrice": "0x1",
      "from": "0x23618e81e3f5cdf7f54c3d65f7fbc0abf5b21e8f",
      "to": "0x95bd8d42f30351685e96c62eddc0d0613bf9a87a",
      "contractAddress": null
    },
    {
      "status": "0x1",
      "cumulativeGasUsed": "0x34b4a",
      "logs": [
        {
          "address": "0x95bd8d42f30351685e96c62eddc0d0613bf9a87a",
          "topics": [
            "0x42e6867e52299b45991308391cccb9ee79466d194059ff10fc15c2d88f0ea061",
            "0x0000000000000000000000000000000000000000000000000000000000000001"
          ],
          "data": "0x0000000000000000000000000000000000000000000000000000000000000060000000000000000000000000000000000000000000000000000000000000001e000000000000000000000000000000000000000000000000006a94d74f430000000000000000000000000000000000000000000000000000000000000000001b4d6f74696f6e2044657369676e20576f726b73686f7020323032350000000000",
          "blockHash": "0x120ffa260c023e3a3d6386c915871b69c63c0ab32a2c2168dacb0c4177a6836b",
          "blockNumber": "0x3",
          "blockTimestamp": "0x697d9c8d",
          "transactionHash": "0xcc0619b43d038f7c5eb2edace367964aa8303de81dafd1f497c83bc812a10172",
          "transactionIndex": "0x1",
          "logIndex": "0x0",
          "removed": false
        }
      ],
      "logsBloom": "0x00000000000000000000000000000000000000000000000000000000000000000000000000000400000000000000000000000000000000000000000000040000000000000000000000000000000000000000000000040000000000000000000000000000001000000000000000000000000000000000000000000000000000800000000000000000000000004000000000000000000000000000000000000000000000000000000000000000000000000000000000000000000000000000000000000000000000000000004000000000000000000000000000000000000040000000000000000000000000000000000020000000000000000000000000000000",
      "type": "0x2",
      "transactionHash": "0xcc0619b43d038f7c5eb2edace367964aa8303de81dafd1f497c83bc812a10172",
      "transactionIndex": "0x1",
      "blockHash": "0x120ffa260c023e3a3d6386c915871b69c63c0ab32a2c2168dacb0c4177a6836b",
      "blockNumber": "0x3",
      "gasUsed": "0x29687",
      "effectiveGasPrice": "0x2f087c86",
      "blobGasPrice": "0x1",
      "from": "0x23618e81e3f5cdf7f54c3d65f7fbc0abf5b21e8f",
      "to": "0x95bd8d42f30351685e96c62eddc0d0613bf9a87a",
      "contractAddress": null
    },
    {
      "status": "0x1",
      "cumulativeGasUsed": "0x5e159",
      "logs": [
        {
          "address": "0x95bd8d42f30351685e96c62eddc0d0613bf9a87a",
          "topics": [
            "0x42e6867e52299b45991308391cccb9ee79466d194059ff10fc15c2d88f0ea061",
            "0x0000000000000000000000000000000000000000000000000000000000000002"
          ],
          "data": "0x0000000000000000000000000000000000000000000000000000000000000060000000000000000000000000000000000000000000000000000000000000138800000000000000000000000000000000000000000000000001aa535d3d0c00000000000000000000000000000000000000000000000000000000000000000016496e646f6e65736961204f70656e3a2046696e616c7300000000000000000000",
          "blockHash": "0x120ffa260c023e3a3d6386c915871b69c63c0ab32a2c2168dacb0c4177a6836b",
          "blockNumber": "0x3",
          "blockTimestamp": "0x697d9c8d",
          "transactionHash": "0x6668c00d6750ce6327af800b0d897cc3e4513fc2c6f65a25b75ae396d53ea241",
          "transactionIndex": "0x2",
          "logIndex": "0x1",
          "removed": false
        }
      ],
      "logsBloom": "0x04000000000000000000000000000000000000000000000000000000000000000000000000000400000000000000000000000000000000000000000000000000000000000000000000000000000000000000000000000000000000000000000000000000001000000000000000000000000000000000000000000000000000800000000000000000000000004000000000000000000000000000000000000000000000000000000000000100000000000000000000000000000000000000000000000000000000000000004000000000000000000000000000000000000000000000000000000000000000000000000020000000008000000000000000000000",
      "type": "0x2",
      "transactionHash": "0x6668c00d6750ce6327af800b0d897cc3e4513fc2c6f65a25b75ae396d53ea241",
      "transactionIndex": "0x2",
      "blockHash": "0x120ffa260c023e3a3d6386c915871b69c63c0ab32a2c2168dacb0c4177a6836b",
      "blockNumber": "0x3",
      "gasUsed": "0x2960f",
      "effectiveGasPrice": "0x2f087c86",
      "blobGasPrice": "0x1",
      "from": "0x23618e81e3f5cdf7f54c3d65f7fbc0abf5b21e8f",
      "to": "0x95bd8d42f30351685e96c62eddc0d0613bf9a87a",
      "contractAddress": null
    },
    {
      "status": "0x1",
      "cumulativeGasUsed": "0x877ec",
      "logs": [
        {
          "address": "0x95bd8d42f30351685e96c62eddc0d0613bf9a87a",
          "topics": [
            "0x42e6867e52299b45991308391cccb9ee79466d194059ff10fc15c2d88f0ea061",
            "0x0000000000000000000000000000000000000000000000000000000000000003"
          ],
          "data": "0x000000000000000000000000000000000000000000000000000000000000006000000000000000000000000000000000000000000000000000000000000000c800000000000000000000000000000000000000000000000000354a6ba7a18000000000000000000000000000000000000000000000000000000000000000001a466573746976616c204b756c696e6572204e7573616e74617261000000000000",
          "blockHash": "0x120ffa260c023e3a3d6386c915871b69c63c0ab32a2c2168dacb0c4177a6836b",
          "blockNumber": "0x3",
          "blockTimestamp": "0x697d9c8d",
          "transactionHash": "0xbb75c99af7abefaf9eaa1ec2b657494c4f2ffccd9605b2d51567deedfe0048b4",
          "transactionIndex": "0x3",
          "logIndex": "0x2",
          "removed": false
        }
      ],
      "logsBloom": "0x00000000000000000000000000000000000000000000000000000000000000000000000000000400000000000000000000000000020000000000000000000000000000000000000000000000000000000000000000000000000000000000000000000000001000000000000000000000000000000000000000000000000000800000000000000000000000004000000000000000000000000000000000000000000000000000000000000000000000000000000000800000000000000000400000000000000000000000004000000000000000000000000000000000000000000000000000000000000000000000000020000000000000000000000000000000",
      "type": "0x2",
      "transactionHash": "0xbb75c99af7abefaf9eaa1ec2b657494c4f2ffccd9605b2d51567deedfe0048b4",
      "transactionIndex": "0x3",
      "blockHash": "0x120ffa260c023e3a3d6386c915871b69c63c0ab32a2c2168dacb0c4177a6836b",
      "blockNumber": "0x3",
      "gasUsed": "0x29693",
      "effectiveGasPrice": "0x2f087c86",
      "blobGasPrice": "0x1",
      "from": "0x23618e81e3f5cdf7f54c3d65f7fbc0abf5b21e8f",
      "to": "0x95bd8d42f30351685e96c62eddc0d0613bf9a87a",
      "contractAddress": null
    },
    {
      "status": "0x1",
      "cumulativeGasUsed": "0xb0e1f",
      "logs": [
        {
          "address": "0x95bd8d42f30351685e96c62eddc0d0613bf9a87a",
          "topics": [
            "0x42e6867e52299b45991308391cccb9ee79466d194059ff10fc15c2d88f0ea061",
            "0x0000000000000000000000000000000000000000000000000000000000000004"
          ],
          "data": "0x0000000000000000000000000000000000000000000000000000000000000060000000000000000000000000000000000000000000000000000000000000012c000000000000000000000000000000000000000000000000008e1bc9bf04000000000000000000000000000000000000000000000000000000000000000000175374616e6420557020436f6d656479205370656369616c000000000000000000",
          "blockHash": "0x120ffa260c023e3a3d6386c915871b69c63c0ab32a2c2168dacb0c4177a6836b",
          "blockNumber": "0x3",
          "blockTimestamp": "0x697d9c8d",
          "transactionHash": "0xd74592fcf7c6d15db97695f50cb1906d87ecdf08698715a40e1ee0e907b8a1d0",
          "transactionIndex": "0x4",
          "logIndex": "0x3",
          "removed": false
        }
      ],
      "logsBloom": "0x00000000000000000000000000000000000000000000000000000000000000000000000000000400000000000000000000000000000000000000000000000000000000000000000000000000000000000000000000000000000000000000000008000000001000000000000000000000000000000000000000000000000000800000000000000000000000004000000000000000000000000000000000000000000000000000000000000000000000000000000000000000002000000000000000000000000000000000004000000000000000008000000000000000000000000000000000000000000000000000000020000000000000000000000000000000",
      "type": "0x2",
      "transactionHash": "0xd74592fcf7c6d15db97695f50cb1906d87ecdf08698715a40e1ee0e907b8a1d0",
      "transactionIndex": "0x4",
      "blockHash": "0x120ffa260c023e3a3d6386c915871b69c63c0ab32a2c2168dacb0c4177a6836b",
      "blockNumber": "0x3",
      "gasUsed": "0x29633",
      "effectiveGasPrice": "0x2f087c86",
      "blobGasPrice": "0x1",
      "from": "0x23618e81e3f5cdf7f54c3d65f7fbc0abf5b21e8f",
      "to": "0x95bd8d42f30351685e96c62eddc0d0613bf9a87a",
      "contractAddress": null
    },
    {
      "status": "0x1",
      "cumulativeGasUsed": "0xda446",
      "logs": [
        {
          "address": "0x95bd8d42f30351685e96c62eddc0d0613bf9a87a",
          "topics": [
            "0x42e6867e52299b45991308391cccb9ee79466d194059ff10fc15c2d88f0ea061",
            "0x0000000000000000000000000000000000000000000000000000000000000005"
          ],
          "data": "0x00000000000000000000000000000000000000000000000000000000000000600000000000000000000000000000000000000000000000000000000000000014000000000000000000000000000000000000000000000000011c37937e0800000000000000000000000000000000000000000000000000000000000000000019596f67612026204d656469746174696f6e205265747265617400000000000000",
          "blockHash": "0x120ffa260c023e3a3d6386c915871b69c63c0ab32a2c2168dacb0c4177a6836b",
          "blockNumber": "0x3",
          "blockTimestamp": "0x697d9c8d",
          "transactionHash": "0x9ee2f705539543bf93b3fe7008ce7a83422278ee0f0248275bf15654b2a16109",
          "transactionIndex": "0x5",
          "logIndex": "0x4",
          "removed": false
        }
      ],
      "logsBloom": "0x00000000000000000000000000000000000000000000000000000000000000000000000000000400000000000000000000000000000000000000000000000000000010000000000000000000000000000000000000000000000000000000000000000000001000000000000000000000000000000000000000000000000000800000000000000000000000004000001000000800000000000000000000000000000000000000000000000000000000000000000000000000000000000000000000000000000000000000004000000000000000000000000000000000000000000000000000000000000000000000000020000000000000000000000000000000",
      "type": "0x2",
      "transactionHash": "0x9ee2f705539543bf93b3fe7008ce7a83422278ee0f0248275bf15654b2a16109",
      "transactionIndex": "0x5",
      "blockHash": "0x120ffa260c023e3a3d6386c915871b69c63c0ab32a2c2168dacb0c4177a6836b",
      "blockNumber": "0x3",
      "gasUsed": "0x29627",
      "effectiveGasPrice": "0x2f087c86",
      "blobGasPrice": "0x1",
      "from": "0x23618e81e3f5cdf7f54c3d65f7fbc0abf5b21e8f",
      "to": "0x95bd8d42f30351685e96c62eddc0d0613bf9a87a",
      "contractAddress": null
    }
  ],
  "libraries": [],
  "pending": [],
  "returns": {},
  "timestamp": 1769839758728,
  "chain": 31337,
  "commit": "142a235"
}