{
  "transactions": [
    {
      "hash": "0xd372f4631fe5d7d46d7e98d455d20a2d39e803e5ce768e5ffff335a4e0e9e83b",
      "transactionType": "CREATE",
      "contractName": "TicketNFT",
      "contractAddress": "0x95bd8d42f30351685e96c62eddc0d0613bf9a87a",
      "function": null,
      "arguments": null,
      "transaction": {
        "from": "0x23618e81e3f5cdf7f54c3d65f7fbc0abf5b21e8f",
        "gas": "0x31d4b8",
        "value": "0x0",
        "input": "0x6080604052346103d957604080519081016001600160401b0381118282101761030e576040908152600c82526b456c6c69707469436865636b60a01b602083015280519081016001600160401b0381118282101761030e576040526003815262454c4360e81b602082015281516001600160401b03811161030e576100845f546103dd565b601f811161038c575b50602092601f821160011461032d57928192935f92610322575b50508160011b915f199060031b1c1916175f555b80516001600160401b03811161030e576100d66001546103dd565b601f81116102b5575b50602091601f8211600114610255579181925f9261024a575b50508160011b915f199060031b1c1916176001555b33156102375760068054336001600160a01b0319821681179092556001600160a01b03167f8be0079c531659141344cd1fd0a4f28419497f9722a3daafe3b4186f6b6457e05f80a36001600755600160085561016a600d546103dd565b601f81116101ee575b605b600d9081555f527f68747470733a2f2f6170692e64696365626561722e636f6d2f372e782f7368615f516020612d095f395f51905f52556c7065732f7376673f736565643d60981b7fd7b6990105719101dabeb77144f2a3385c8033acd3af97e9423a695e81ad1eb6556040516128dd908161042c8239f35b600d5f5261023190601f0160051c5f516020612d095f395f51905f52017fd7b6990105719101dabeb77144f2a3385c8033acd3af97e9423a695e81ad1eb7610415565b5f610173565b631e4fbdf760e01b5f525f60045260245ffd5b015190505f806100f8565b601f1982169260015f52805f20915f5b85811061029d57508360019510610285575b505050811b0160015561010d565b01515f1960f88460031b161c191690555f8080610277565b91926020600181928685015181550194019201610265565b60015f526102fe907fb10e2d527612073b26eecdfd717e6a320cf44b4afac2b0732d9fcbe2b7fa0cf6601f840160051c81019160208510610304575b601f0160051c0190610415565b5f6100df565b90915081906102f1565b634e487b7160e01b5f52604160045260245ffd5b015190505f806100a7565b601f198216935f8052805f20915f5b868110610374575083600195961061035c575b505050811b015f556100bb565b01515f1960f88460031b161c191690555f808061034f565b9192602060018192868501518155019401920161033c565b5f80526103d3907f290decd9548b62a8d60345a988386fc84ba6bc95484008f6362f93160ef3e563601f840160051c8101916020851061030457601f0160051c0190610415565b5f61008d565b5f80fd5b90600182811c9216801561040b575b60208310146103f757565b634e487b7160e01b5f52602260045260245ffd5b91607f16916103ec565b818110610420575050565b5f815560010161041556fe6080806040526004361015610012575f80fd5b5f3560e01c90816301ffc9a714611eba5750806306fdde0314611e18578063081812fc14611ddc578063095ea7b314611cf25780630a15fa8b14611c395780630b79143014611b945780631af32d7814611b6a57806323b872dd14611b535780632b7ac3f314611b2b5780632cd1d35c14611aef5780633ccfd60b14611a7d57806342842e0e14611a4e57806350b44712146119fd57806352c55db9146119d45780635437988d146119915780636352211e146119615780636d1884e0146118f257806370a08231146118a1578063715018a61461184657806374f82e30146117b45780637dc379fa146117125780638647ca76146115995780638da5cb5b1461157157806395d89b4114611493578063a22cb465146113ef578063a71820511461101b578063b88d4fde14610fb0578063c27a500d14610e92578063c87b56dd146108cc578063d082e3811461088f578063e13102e91461084a578063e985e9c5146107f3578063f2fde38b1461076d578063f5f00d84146102705763ff99a0631461019d575f80fd5b3461026c57602036600319011261026c576102416004356101bd816124ab565b50805f52600a60205260405f2090604051916101d883611fad565b606060ff60038354938487526001810154602088015260028101546040880152015416930192151583525f52600960205261021560405f206123fe565b61025d81519361024f60406020850151940151915115159360405197889760a0895260a0890190611f25565b908782036020890152611f25565b908582036040870152611f25565b91606084015260808301520390f35b5f80fd5b3461026c5760a036600319011261026c576004356001600160401b03811161026c576102a090369060040161218f565b6024356001600160401b03811161026c576102bf90369060040161218f565b916044356001600160401b03811161026c576102df90369060040161218f565b94909360643590610338608435966102f56124df565b610329600854976103058961245e565b6008556040519461031586611fc8565b610320368a8a612159565b86523691612159565b9860208401998a523691612159565b966040820197885260608201838152608083019088825260a084019260018452885f52600960205260405f2094518051906001600160401b0382116105dd5781906103838854611f75565b601f811161071d575b50602090601f83116001146106ba575f926106af575b50508160011b915f199060031b1c19161785555b51805160018601916001600160401b0382116105dd5781906103d88454611f75565b601f811161065f575b50602090601f83116001146105fc575f926105f1575b50508160011b915f199060031b1c19161790555b600284019951998a516001600160401b0381116105dd5761042c8254611f75565b9b601f8d11610598575b60209c508c90601f83116001146105005795608098958c9d956104bc95858e9d9b967f42e6867e52299b45991308391cccb9ee79466d194059ff10fc15c2d88f0ea0619f9b966005975f926104f5575b50508160011b915f199060031b1c19161790555b51600385015551600484015551151591019060ff801983541691151516179055565b60405195869460608652816060870152868601375f848401860152898401526040830152601f01601f19168101030190a2604051908152f35b015190505f80610486565b90601f19831691845f52815f20925f5b8181106105805750956104bc958e9f97867f42e6867e52299b45991308391cccb9ee79466d194059ff10fc15c2d88f0ea0619f9e9c97968f9c9660809f9c9660059960019510610568575b505050811b01905561049a565b01515f1960f88460031b161c191690555f808061055b565b92936020600181928786015181550195019301610510565b825f5260205f20601f830160051c81019d602084106105d3575b601f0160051c019c5b8d81106105c85750610436565b5f81556001016105bb565b909d508d906105b2565b634e487b7160e01b5f52604160045260245ffd5b015190508d806103f7565b5f8581528281209350601f198516905b818110610647575090846001959493921061062f575b505050811b01905561040b565b01515f1960f88460031b161c191690558d8080610622565b9293602060018192878601518155019501930161060c565b909150835f5260205f20601f840160051c810191602085106106a5575b90601f859493920160051c01905b81811061069757506103e1565b5f815584935060010161068a565b909150819061067c565b015190508d806103a2565b5f8981528281209350601f198516905b81811061070557509084600195949392106106ed575b505050811b0185556103b6565b01515f1960f88460031b161c191690558d80806106e0565b929360206001819287860151815501950193016106ca565b909150875f5260205f20601f840160051c81019160208510610763575b90601f859493920160051c01905b818110610755575061038c565b5f8155849350600101610748565b909150819061073a565b3461026c57602036600319011261026c57610786611f49565b61078e6124df565b6001600160a01b031680156107e057600680546001600160a01b0319811683179091556001600160a01b03167f8be0079c531659141344cd1fd0a4f28419497f9722a3daafe3b4186f6b6457e05f80a3005b631e4fbdf760e01b5f525f60045260245ffd5b3461026c57604036600319011261026c5761080c611f49565b610814611f5f565b9060018060a01b03165f52600560205260405f209060018060a01b03165f52602052602060ff60405f2054166040519015158152f35b3461026c57602036600319011261026c5761088d6004356108696124df565b5f908152600960205260409020600501805460ff818116151660ff19909116179055565b005b3461026c575f36600319011261026c576007545f1981019081116108b857602090604051908152f35b634e487b7160e01b5f52601160045260245ffd5b3461026c57602036600319011261026c576004356108e9816124ab565b50805f52600a60205260405f206040519061090382611fad565b8054808352606060ff60036001850154946020870195865260028101546040880152015416930192151583525f52600960205261094260405f206123fe565b9161094c84612647565b91604051946020860193865f600d5461096481611f75565b9060018116908115610e795750600114610e31575b50906020826109af94651d1a58dad95d60d21b600695528051928391018583015e015f838201520301601f198101885287611fe3565b8451946109bb82612647565b968151956109c884612647565b908351926109e96109e26040602088015197015197612647565b9751612647565b975115610e0a576040516109fe604082611fe3565b6004815263155cd95960e21b6020820152985b6040519b8c809c683d913730b6b2911d1160b91b60208301528051916020839201906029015e8c01602981016a202d205469636b6574202360a81b905281516020819301603483015e0160290161088b60f21b600b820152600d81017f226465736372697074696f6e223a224f6666696369616c206576656e742074699052602d810168031b5b2ba103337b9160bd1b905281516020819301603683015e01600b019061088b60f21b602b830152681134b6b0b3b2911d1160b91b602d830152518092603683015e01602b0161088b60f21b600b820152600d81017f2265787465726e616c5f75726c223a2268747470733a2f2f656c6c69707469639052602d81016f6865636b2e636f6d2f7469636b65742f60801b905281516020819301603d83015e01600b0161088b60f21b60328201526d2261747472696275746573223a5b60901b6034820152604281017f7b2274726169745f74797065223a224576656e74222c2276616c7565223a2200905281516020819301606183015e0160320162089f4b60ea1b602f820152603281017f7b2274726169745f74797065223a2244617465222c2276616c7565223a220000905281516020819301605083015e01602f0162089f4b60ea1b6021820152602481017f7b2274726169745f74797065223a224c6f636174696f6e222c2276616c7565229052611d1160f11b604482015281516020819301604683015e0160210162089f4b60ea1b6025820152602881017f7b2274726169745f74797065223a225469636b6574204944222c2276616c7565905262111d1160e91b604882015281516020819301604b83015e0160250162089f4b60ea1b6026820152602981017f7b2274726169745f74797065223a225469636b6574204e756d626572222c227690526630b63ab2911d1160c91b604982015281516020819301605083015e0160260162089f4b60ea1b602a820152602d81017f7b2274726169745f74797065223a22537461747573222c2276616c7565223a22905281516020819301604d83015e61227d60f01b9101604d810191909152615d7d60f01b604f82015203603181018252610d339060510182611fe3565b604051610d41606082611fe3565b60408082527f4142434445464748494a4b4c4d4e4f505152535455565758595a61626364656660208301527f6768696a6b6c6d6e6f707172737475767778797a303132333435363738392b2f90820152610d9a9161278f565b6040518091602082017f646174613a6170706c69636174696f6e2f6a736f6e3b6261736536342c000000905280516020819201603d84015e8101603d81015f905203603d01601f1981018252610df09082611fe3565b60405180916020825260208201610e0691611f25565b0390f35b604051610e18604082611fe3565b600681526541637469766560d01b602082015298610a11565b9050600d5f525f5160206128885f395f51905f525f905b828210610e5e5750508101602090810190610979565b80829394602080946001945492010152019101899291610e48565b60ff191689525080151502820160209081019150610979565b3461026c575f36600319011261026c576008545f1981019081116108b857610eb98161246c565b90610ec76040519283611fe3565b808252601f19610ed68261246c565b015f5b818110610f9957505060015b81811115610f5457826040518091602082016020835281518091526040830190602060408260051b8601019301915f905b828210610f2557505050500390f35b91936001919395506020610f448192603f198a820301865288516120de565b9601920192018594939192610f16565b805f52600960205260405f20905f198101918183116108b857610f9492610f7d610f8e926123fe565b610f878288612483565b5285612483565b5061245e565b610ee5565b602090610fa46123cb565b82828701015201610ed9565b3461026c57608036600319011261026c57610fc9611f49565b610fd1611f5f565b90604435606435926001600160401b03841161026c573660238501121561026c5761100961088d943690602481600401359101612159565b926110158383836121bc565b33612506565b604036600319011261026c57600435611032611f5f565b815f52600960205261104660405f206123fe565b60a0810151156113e057825f52600b60205260405f2054608082015111156113d1576060015134106113c2576007549061107f8261245e565b600755825f52600b60205260405f2092611099845461245e565b8094556110f86040516110ab81611fad565b8281526003602082018781526040830142815260608401915f8352885f52600a60205260405f209451855551600185015551600284015551151591019060ff801983541691151516179055565b6020936040516111088682611fe3565b5f81526001600160a01b0384169384156113af575f8681526002885260409020546001600160a01b03161515806113a7575b611381575b5f8681526002885260409020546001600160a01b03168015159081611350575b865f526003895260405f2060018154019055875f526002895260405f20876bffffffffffffffffffffffff60a01b8254161790558787827fddf252ad1be2c89b69c2b068fc378daa952ba7f163c4a11628f55a4df523b3ef5f80a45061133d573b611250575b505f8080803460018060a01b03600654165af16111e061239c565b5015611219577f4fe0f5bb11eb6ab81c428fb83261719e5b22f84b3e1942cd491c3777504bb851858592604051908152a4604051908152f35b60405162461bcd60e51b815260048101869052600f60248201526e151c985b9cd9995c8819985a5b1959608a1b6044820152606490fd5b8561128d916040979695975180938192630a85bd0160e11b83523360048401525f6024840152886044840152608060648401526084830190611f25565b03815f8a5af15f91816112fd575b506112c95785856112aa61239c565b80519190826112c65783633250574960e11b5f5260045260245ffd5b01fd5b939492936001600160e01b03191663757a42ff60e11b016112ea57856111c5565b82633250574960e11b5f5260045260245ffd5b9091508581813d8311611336575b6113158183611fe3565b8101031261026c57516001600160e01b03198116810361026c57908761129b565b503d61130b565b6339e3563760e11b5f525f60045260245ffd5b5f8881526004602052604080822080546001600160a01b031916905582825260038b52902080545f1901905561115f565b855f52600a875260ff600360405f200154161561113f57633b0653eb60e01b5f5260045ffd5b50600161113a565b633250574960e11b5f525f60045260245ffd5b63cd1c886760e01b5f5260045ffd5b6352df9fe560e01b5f5260045ffd5b6301e1837960e31b5f5260045ffd5b3461026c57604036600319011261026c57611408611f49565b602435908115159081830361026c576001600160a01b03169182156114805761145290335f52600560205260405f20845f5260205260405f209060ff801983541691151516179055565b6040519081527f17307eab39ab6107e8899845ad3d59bd9653f200f220920489ca2b5937696c3160203392a3005b82630b61174360e31b5f5260045260245ffd5b3461026c575f36600319011261026c576040515f6001546114b381611f75565b808452906001811690811561154d57506001146114ef575b610e06836114db81850382611fe3565b604051918291602083526020830190611f25565b60015f9081527fb10e2d527612073b26eecdfd717e6a320cf44b4afac2b0732d9fcbe2b7fa0cf6939250905b808210611533575090915081016020016114db6114cb565b91926001816020925483858801015201910190929161151b565b60ff191660208086019190915291151560051b840190910191506114db90506114cb565b3461026c575f36600319011261026c576006546040516001600160a01b039091168152602090f35b3461026c57602036600319011261026c576004356001600160401b03811161026c573660238201121561026c576115da903690602481600401359101612159565b6115e26124df565b80516001600160401b0381116105dd576115fd600d54611f75565b601f81116116aa575b50602091601f8211600114611642579181925f92611637575b50505f19600383901b1c191660019190911b17600d55005b01519050828061161f565b601f19821692600d5f525f5160206128885f395f51905f52915f5b8581106116925750836001951061167a575b505050811b01600d55005b01515f1960f88460031b161c1916905582808061166f565b9192602060018192868501518155019401920161165d565b600d5f52601f820160051c5f5160206128885f395f51905f520190602083106116fd575b601f0160051c5f5160206128885f395f51905f5201905b8181106116f25750611606565b5f81556001016116e5565b5f5160206128885f395f51905f5291506116ce565b3461026c57602036600319011261026c576004355f606060405161173581611fad565b828152826020820152826040820152015261174f816124ab565b505f52600a602052608060405f2060405161176981611fad565b815491828252600181015460208301908152606060ff600360028501549460408701958652015416930192151583526040519384525160208401525160408301525115156060820152f35b3461026c575f36600319011261026c576040515f600d546117d481611f75565b808452906001811690811561154d57506001146117fb57610e06836114db81850382611fe3565b600d5f9081525f5160206128885f395f51905f52939250905b80821061182c575090915081016020016114db6114cb565b919260018160209254838588010152019101909291611814565b3461026c575f36600319011261026c5761185e6124df565b600680546001600160a01b031981169091555f906001600160a01b03167f8be0079c531659141344cd1fd0a4f28419497f9722a3daafe3b4186f6b6457e08280a3005b3461026c57602036600319011261026c576001600160a01b036118c2611f49565b1680156118df575f526003602052602060405f2054604051908152f35b6322718ad960e21b5f525f60045260245ffd5b3461026c57602036600319011261026c5760043561190e6123cb565b5080158015611955575b611946575f526009602052610e0661193260405f206123fe565b6040519182916020835260208301906120de565b630c93477d60e41b5f5260045ffd5b50600854811015611918565b3461026c57602036600319011261026c57602061197f6004356124ab565b6040516001600160a01b039091168152f35b3461026c57602036600319011261026c576119aa611f49565b6119b26124df565b600c80546001600160a01b0319166001600160a01b0392909216919091179055005b3461026c575f36600319011261026c576008545f1981019081116108b857602090604051908152f35b3461026c57602036600319011261026c576004355f52600a602052608060405f2080549060018101549060ff6003600283015492015416916040519384526020840152604083015215156060820152f35b3461026c5761088d611a5f366120a4565b9060405192611a6f602085611fe3565b5f84526110158383836121bc565b3461026c575f36600319011261026c57611a956124df565b5f80808060018060a01b036006541647905af1611ab061239c565b5015611ab857005b60405162461bcd60e51b815260206004820152600f60248201526e1dda5d1a191c985dc819985a5b1959608a1b6044820152606490fd5b3461026c57602036600319011261026c57600435611b0c816124ab565b505f52600a602052602060ff600360405f200154166040519015158152f35b3461026c575f36600319011261026c57600c546040516001600160a01b039091168152602090f35b3461026c5761088d611b64366120a4565b916121bc565b3461026c57602036600319011261026c576004355f52600b602052602060405f2054604051908152f35b3461026c57602036600319011261026c576004355f526009602052611c0760405f20611bbf81612004565b90611bcc60018201612004565b611bd860028301612004565b91611c23600382015493611c1560ff60056004860154950154169460405198899860c08a5260c08a0190611f25565b9088820360208a0152611f25565b908682036040880152611f25565b9260608501526080840152151560a08301520390f35b3461026c57602036600319011261026c57600c54600435906001600160a01b03163303611ce457805f52600a60205260ff600360405f20015416611cd557805f52600a602052600360405f2001600160ff19825416179055611c9a816124ab565b6040514281526001600160a01b0390911691907f4f9c6210874b14266ea0f64418a0f7403a875226eae9483f5d9cd7663234db9a90602090a3005b630869773360e41b5f5260045ffd5b6282b42960e81b5f5260045ffd5b3461026c57604036600319011261026c57611d0b611f49565b602435611d17816124ab565b33151580611dc9575b80611d9c575b611d895781906001600160a01b0384811691167f8c5be1e5ebec7d5bd14f71427d1e84f3dd0314c0f7b2291e5b200ac8c7c3b9255f80a45f90815260046020526040902080546001600160a01b0319166001600160a01b03909216919091179055005b63a9fbf51f60e01b5f523360045260245ffd5b506001600160a01b0381165f90815260056020908152604080832033845290915290205460ff1615611d26565b506001600160a01b038116331415611d20565b3461026c57602036600319011261026c57600435611df9816124ab565b505f526004602052602060018060a01b0360405f205416604051908152f35b3461026c575f36600319011261026c576040515f5f54611e3781611f75565b808452906001811690811561154d5750600114611e5e57610e06836114db81850382611fe3565b5f8080527f290decd9548b62a8d60345a988386fc84ba6bc95484008f6362f93160ef3e563939250905b808210611ea0575090915081016020016114db6114cb565b919260018160209254838588010152019101909291611e88565b3461026c57602036600319011261026c576004359063ffffffff60e01b821680920361026c576020916380ac58cd60e01b8114908115611f14575b8115611f03575b5015158152f35b6301ffc9a760e01b14905083611efc565b635b5e139f60e01b81149150611ef5565b805180835260209291819084018484015e5f828201840152601f01601f1916010190565b600435906001600160a01b038216820361026c57565b602435906001600160a01b038216820361026c57565b90600182811c92168015611fa3575b6020831014611f8f57565b634e487b7160e01b5f52602260045260245ffd5b91607f1691611f84565b608081019081106001600160401b038211176105dd57604052565b60c081019081106001600160401b038211176105dd57604052565b90601f801991011681019081106001600160401b038211176105dd57604052565b9060405191825f82549261201784611f75565b8084529360018116908115612082575060011461203e575b5061203c92500383611fe3565b565b90505f9291925260205f20905f915b81831061206657505090602061203c928201015f61202f565b602091935080600191548385890101520191019091849261204d565b90506020925061203c94915060ff191682840152151560051b8201015f61202f565b606090600319011261026c576004356001600160a01b038116810361026c57906024356001600160a01b038116810361026c579060443590565b9060a08061211f61210d6120fb865160c0875260c0870190611f25565b60208701518682036020880152611f25565b60408601518582036040870152611f25565b9360608101516060850152608081015160808501520151151591015290565b6001600160401b0381116105dd57601f01601f191660200190565b9291926121658261213e565b916121736040519384611fe3565b82948184528183011161026c578281602093845f960137010152565b9181601f8401121561026c578235916001600160401b03831161026c576020838186019501011161026c57565b6001600160a01b03909116919082156113af575f828152600260205260409020546001600160a01b0316151580612394575b61236d575b5f828152600260205260409020546001600160a01b0316928290331515806122d8575b50846122a5575b805f52600360205260405f2060018154019055815f52600260205260405f20816bffffffffffffffffffffffff60a01b825416179055847fddf252ad1be2c89b69c2b068fc378daa952ba7f163c4a11628f55a4df523b3ef5f80a46001600160a01b031680830361228d57505050565b6364283d7b60e01b5f5260045260245260445260645ffd5b5f82815260046020526040902080546001600160a01b0319169055845f52600360205260405f205f19815401905561221d565b9091508061231c575b156122ee5782905f612216565b828461230657637e27328960e01b5f5260045260245ffd5b63177e802f60e01b5f523360045260245260445ffd5b50338414801561234b575b806122e157505f838152600460205260409020546001600160a01b031633146122e1565b505f84815260056020908152604080832033845290915290205460ff16612327565b815f52600a60205260ff600360405f20015416156121f357633b0653eb60e01b5f5260045ffd5b5060016121ee565b3d156123c6573d906123ad8261213e565b916123bb6040519384611fe3565b82523d5f602084013e565b606090565b604051906123d882611fc8565b5f60a0836060815260606020820152606060408201528260608201528260808201520152565b9060405161240b81611fc8565b60a060ff6005839561241c81612004565b855261242a60018201612004565b602086015261243b60028201612004565b604086015260038101546060860152600481015460808601520154161515910152565b5f1981146108b85760010190565b6001600160401b0381116105dd5760051b60200190565b80518210156124975760209160051b010190565b634e487b7160e01b5f52603260045260245ffd5b5f818152600260205260409020546001600160a01b03169081156124cd575090565b637e27328960e01b5f5260045260245ffd5b6006546001600160a01b031633036124f357565b63118cdaa760e01b5f523360045260245ffd5b823b612514575b5050505050565b604051630a85bd0160e11b81526001600160a01b039182166004820152918116602483015260448201939093526080606482015291169160209082908190612560906084830190611f25565b03815f865af15f91816125d0575b5061259c575061257c61239c565b805190816125975782633250574960e11b5f5260045260245ffd5b602001fd5b6001600160e01b03191663757a42ff60e11b016125be57505f8080808061250d565b633250574960e11b5f5260045260245ffd5b9091506020813d60201161260d575b816125ec60209383611fe3565b8101031261026c57516001600160e01b03198116810361026c57905f61256e565b3d91506125df565b9061261f8261213e565b61262c6040519182611fe3565b828152809261263d601f199161213e565b0190602036910137565b805f9172184f03e93ff9f4daa797ed6e38ed64bf6a1f0160401b82101561276c575b806d04ee2d6d415b85acef8100000000600a921015612751575b662386f26fc1000081101561273d575b6305f5e10081101561272c575b61271081101561271d575b606481101561270f575b1015612704575b600a60216126cc60018501612615565b938401015b5f1901916f181899199a1a9b1b9c1cb0b131b232b360811b8282061a83530480156126ff57600a90916126d1565b505090565b6001909101906126bc565b6064600291049301926126b5565b612710600491049301926126ab565b6305f5e100600891049301926126a0565b662386f26fc1000060109104930192612693565b6d04ee2d6d415b85acef810000000060209104930192612683565b506040915072184f03e93ff9f4daa797ed6e38ed64bf6a1f0160401b8104612669565b919091805115612870578051600281018091116108b85760039004600281901b906001600160fe1b038116036108b8576127c890612615565b90602082019080815182019560208701908151925f83525b888110612822575050600393949596505251068060011461281057600214612806575090565b603d905f19015390565b50603d90815f19820153600119015390565b600360049199969901986001603f8b5182828260121c16870101518453828282600c1c16870101518385015382828260061c16870101516002850153168401015160038201530194976127e0565b509050604051612881602082611fe3565b5f81529056fed7b6990105719101dabeb77144f2a3385c8033acd3af97e9423a695e81ad1eb5a26469706673582212203bc57ff40a34fa0ba0474d8c62e042c7c1690f976a8c236c4c811818b5704c1764736f6c634300081e0033d7b6990105719101dabeb77144f2a3385c8033acd3af97e9423a695e81ad1eb5",
        "nonce": "0x0",
        "chainId": "0x7a69"
      },
      "additionalContracts": [],
      "isFixedGasLimit": false
    },
    {
      "hash": "0xd41eb15f5e01a710aecf9e8a804be05324d901b8b533545c114cb6922546b5d8",
      "transactionType": "CREATE",
      "contractName": "TicketVerifier",
      "contractAddress": "0x98eddadcfde04dc22a0e62119617e74a6bc77313",
      "function": null,
      "arguments": [
        "0x95bD8D42f30351685e96C62EDdc0d0613bf9a87A"
      ],
      "transaction": {
        "from": "0x23618e81e3f5cdf7f54c3d65f7fbc0abf5b21e8f",
        "gas": "0xde571",
        "value": "0x0",
        "input": "0x608080604052346100f157602081610bfd803803809161001f82856100f5565b8339810103126100f157516001600160a01b038116908190036100f15760018060a01b03195f5416175f5560405160208101907f8b73c3c69bb8fe3d512ecc4cf759cc79239f7b179b0ffacaa9a75d522b39400f82527f93ab398023282bbbe8643ec643d528b8278428194e3fcc84fe8324e9b3e1767a60408201527fc89efdaa54c0f20c7adf612882df0950f5a951637e0307cdcb4c672f298b8bc660608201524660808201523060a082015260a081526100dc60c0826100f5565b519020600255604051610ad0908161012d8239f35b5f80fd5b601f909101601f19168101906001600160401b0382119082101761011857604052565b634e487b7160e01b5f52604160045260245ffdfe6080806040526004361015610012575f80fd5b5f905f3560e01c9081633644e515146103e2575080633b639e6f146103a857806389782d2e14610379578063b35bfdc61461007e5763b393391b14610055575f80fd5b3461007b578060031936011261007b57546040516001600160a01b039091168152602090f35b80fd5b346102e857366003190161010081126102e8576080136102e85760803660831901126102e85760443580421161036a575f546040516331a9108f60e11b8152600480359082018190529291602090829060249082906001600160a01b03165afa9081156102dd575f91610328575b506001600160a01b036100fd61044e565b166001600160a01b03909116036103195761011661044e565b906040519060208201927f98bedf8cc3414a2996ce566792f72a2abcc6d18a5bd91475f7b33a653c5928bd845284604084015260018060a01b03166060830152608082015260643560a082015260a0815261017260c08261042c565b5190206002549060405190602082019261190160f01b845260228301526042820152604281526101a360628261042c565b51902090815f52600160205260ff60405f20541661030a576101c361044e565b6040519060e43560c4356101d6846103fc565b80845281602085015260405191602083019182526040830152604082526101fe60608361042c565b905190206001600160a01b039081169116036102fb576102249060a43560843585610464565b156102ec575f8281526001602081905260408220805460ff19169091179055546001600160a01b031690813b156102e8575f8092602460405180958193630a15fa8b60e01b83528660048401525af19081156102dd577f763d86327afbecf1cb7d5b9fc69643f9198fd501b9cb37375f5ced29d52fc601926040926102cd575b506001600160a01b036102b561044e565b169382519182526020820152a2602060405160018152f35b5f6102d79161042c565b5f6102a4565b6040513d5f823e3d90fd5b5f80fd5b638baa579f60e01b5f5260045ffd5b63145a1fdd60e31b5f5260045ffd5b637b63160160e11b5f5260045ffd5b6330cd747160e01b5f5260045ffd5b90506020813d602011610362575b816103436020938361042c565b810103126102e857516001600160a01b03811681036102e857836100ec565b3d9150610336565b630407b05b60e31b5f5260045ffd5b346102e85760203660031901126102e8576004355f526001602052602060ff60405f2054166040519015158152f35b346102e8575f3660031901126102e85760206040517f98bedf8cc3414a2996ce566792f72a2abcc6d18a5bd91475f7b33a653c5928bd8152f35b346102e8575f3660031901126102e8576020906002548152f35b6040810190811067ffffffffffffffff82111761041857604052565b634e487b7160e01b5f52604160045260245ffd5b90601f8019910116810190811067ffffffffffffffff82111761041857604052565b6024356001600160a01b03811681036102e85790565b919290928315158061071d575b156106ec57801515806106c2575b1561067d5761048d82610738565b156106385770014551231950b75fc4402da1732fc9bebe1990069182156105f35760019270014551231950b75fc4402da1732fc9bec01990815b6105ac575050829161054c6105689261056e9550604051906104e8826103fc565b7f79be667ef9dcbbac55a06295ce870b07029bfcdb2dce28d959f2815b16f8179882527f483ada7726a3c4655da4fbfc0e1108a8fd17b448a68554199c47d08ffb10d4b860208301528570014551231950b75fc4402da1732fc9bebe199109610814565b9270014551231950b75fc4402da1732fc9bebe19908609610814565b9061088a565b8051908115908161059f575b50610599575f70014551231950b75fc4402da1732fc9bebe1991081490565b50505f90565b602091500151155f61057a565b600182166105d6575b70014551231950b75fc4402da1732fc9bebe199080099060011c90816104c7565b938470014551231950b75fc4402da1732fc9bebe199109936105b5565b60405162461bcd60e51b815260206004820152601a60248201527f6d6f64496e76657273653a204e4f545f494e5645525449424c450000000000006044820152606490fd5b60405162461bcd60e51b815260206004820152601760248201527f7075626c6963206b6579206e6f74206f6e2063757276650000000000000000006044820152606490fd5b60405162461bcd60e51b815260206004820152601f60248201527f696e76616c69642073202d206d616c6c6561626c65207369676e6174757265006044820152606490fd5b507f7fffffffffffffffffffffffffffffff5d576e7357a4501ddfe92f46681b20a081111561047f565b60405162461bcd60e51b815260206004820152600960248201526834b73b30b634b2103960b91b6044820152606490fd5b5070014551231950b75fc4402da1732fc9bebe198410610471565b805180158061079c575b610599576401000003d01911801590610788575b61078357602081015190516401000003d019906007908290818180090908906401000003d0199080091490565b505f90565b506401000003d01960208201511015610756565b50602082015115610742565b6401000003d019900680156105f3576001906401000003d21990815b6107cd57505090565b600182166107eb575b6401000003d0199080099060011c90816107c4565b91826401000003d0199109916107d6565b60405190610809826103fc565b5f6020838281520152565b91909161081f6107fc565b5070014551231950b75fc4402da1732fc9bebe19900680604051610842816103fc565b5f81525f602082015293905b610856575050565b60018216610874575b806108699161088a565b9060011c908161084e565b92610882846108699261088a565b93905061085f565b604051610896816103fc565b5f81525f6020820152508051801580610a8e575b610a8957825190811580610a7d575b610a76571480610a5c575b610a4e57805182519081811480610a3d575b156109d8575050602081018051156109bd57516401000003d01990800880156109bd57815161090b6401000003d019926107a8565b906401000003d019908190800960030909915b815190516401000003d01991086401000003d019036401000003d01981116109a9576401000003d01990818480090891815191836401000003d01903906401000003d01982116109a957602001516401000003d01903916401000003d01983116109a9576040519461098f866103fc565b85526401000003d019938492839108900908602082015290565b634e487b7160e01b5f52601160045260245ffd5b5050506040516109cc816103fc565b5f81525f602082015290565b6401000003d019036401000003d01981116109a9576401000003d019910880156109bd57602083015160208301516401000003d01903906401000003d01982116109a957610a2c6401000003d019936107a8565b916401000003d0199108099161091e565b5060208301516020850151146108d6565b50506040516109cc816103fc565b50602081810151908301516401000003d0199108156108c4565b5050905090565b506020840151156108b9565b505090565b506020820151156108aa56fea26469706673582212203233d51f91e58483fc278ae8a95d7eb72ac59d488e55a63ab4b02c6dde7d271864736f6c634300081e003300000000000000000000000095bd8d42f30351685e96c62eddc0d0613bf9a87a",
        "nonce": "0x1",
        "chainId": "0x7a69"
      },
      "additionalContracts": [],
      "isFixedGasLimit": false
    },
    {
      "hash": "0xce4736055bdea95dd867701e59df3c9c484b92105ffd916e992966e2f3278f0e",
      "transactionType": "CALL",
      "contractName": "TicketNFT",
      "contractAddress": "0x95bd8d42f30351685e96c62eddc0d0613bf9a87a",
      "function": "setVerifier(address)",
      "arguments": [
        "0x98eDDadCfde04dC22a0e62119617e74a6Bc77313"
      ],
      "transaction": {
        "from": "0x23618e81e3f5cdf7f54c3d65f7fbc0abf5b21e8f",
        "to": "0x95bd8d42f30351685e96c62eddc0d0613bf9a87a",
        "gas": "0x1085c",
        "value": "0x0",
        "input": "0x5437988d00000000000000000000000098eddadcfde04dc22a0e62119617e74a6bc77313",
        "nonce": "0x2",
        "chainId": "0x7a69"
      },
      "additionalContracts": [],
      "isFixedGasLimit": false
    },
    {
      "hash": "0xb4d051758d5d38f9598a0abb4ba94648cb9ae77536804865e41ad13ad9673978",
      "transactionType": "CALL",
      "contractName": "TicketNFT",
      "contractAddress": "0x95bd8d42f30351685e96c62eddc0d0613bf9a87a",
      "function": "createEvent(string,string,string,uint256,uint256)",
      "arguments": [
        "Motion Design Workshop 2025",
        "2026-04-20",
        "Creative Hall, Jaksel",
        "30000000000000000",
        "30"
      ],
      "transaction": {
        "from": "0x23618e81e3f5cdf7f54c3d65f7fbc0abf5b21e8f",
        "to": "0x95bd8d42f30351685e96c62eddc0d0613bf9a87a",
        "gas": "0x3930e",
        "value": "0x0",
        "input": "0xf5f00d8400000000000000000000000000000000000000000000000000000000000000a000000000000000000000000000000000000000000000000000000000000000e00000000000000000000000000000000000000000000000000000000000000120000000000000000000000000000000000000000000000000006a94d74f430000000000000000000000000000000000000000000000000000000000000000001e000000000000000000000000000000000000000000000000000000000000001b4d6f74696f6e2044657369676e20576f726b73686f7020323032350000000000000000000000000000000000000000000000000000000000000000000000000a323032362d30342d323000000000000000000000000000000000000000000000000000000000000000000000000000000000000000000000000000000000001543726561746976652048616c6c2c204a616b73656c0000000000000000000000",
        "nonce": "0x3",
        "chainId": "0x7a69"
      },
      "additionalContracts": [],
      "isFixedGasLimit": false
    },
    {
      "hash": "0x3a9ebbb06425a7f73bebb3568a13a84099000c8e7b19959ebfe20fa4dc639cac",
      "transactionType": "CALL",
      "contractName": "TicketNFT",
      "contractAddress": "0x95bd8d42f30351685e96c62eddc0d0613bf9a87a",
      "function": "createEvent(string,string,string,uint256,uint256)",
      "arguments": [
        "Indonesia Open: Finals",
        "2026-06-12",
        "Istora Senayan",
        "120000000000000000",
        "5000"
      ],
      "transaction": {
        "from": "0x23618e81e3f5cdf7f54c3d65f7fbc0abf5b21e8f",
        "to": "0x95bd8d42f30351685e96c62eddc0d0613bf9a87a",
        "gas": "0x39269",
        "value": "0x0",
        "input": "0xf5f00d8400000000000000000000000000000000000000000000000000000000000000a000000000000000000000000000000000000000000000000000000000000000e0000000000000000000000000000000000000000000000000000000000000012000000000000000000000000000000000000000000000000001aa535d3d0c000000000000000000000000000000000000000000000000000000000000000013880000000000000000000000000000000000000000000000000000000000000016496e646f6e65736961204f70656e3a2046696e616c7300000000000000000000000000000000000000000000000000000000000000000000000000000000000a323032362d30362d313200000000000000000000000000000000000000000000000000000000000000000000000000000000000000000000000000000000000e4973746f72612053656e6179616e000000000000000000000000000000000000",
        "nonce": "0x4",
        "chainId": "0x7a69"
      },
      "additionalContracts": [],
      "isFixedGasLimit": false
    },
    {
      "hash": "0x58b17666522714bdf193813a8804c4a29e75f5601e99a752b0dc266e6392377f",
      "transactionType": "CALL",
      "contractName": "TicketNFT",
      "contractAddress": "0x95bd8d42f30351685e96c62eddc0d0613bf9a87a",
      "function": "createEvent(string,string,string,uint256,uint256)",
      "arguments": [
        "Festival Kuliner Nusantara",
        "2026-02-30",
        "Lapangan Puputan, Bali",
        "15000000000000000",
        "200"
      ],
      "transaction": {
        "from": "0x23618e81e3f5cdf7f54c3d65f7fbc0abf5b21e8f",
        "to": "0x95bd8d42f30351685e96c62eddc0d0613bf9a87a",
        "gas": "0x3c8f5",
        "value": "0x0",
        "input": "0xf5f00d8400000000000000000000000000000000000000000000000000000000000000a000000000000000000000000000000000000000000000000000000000000000e0000000000000000000000000000000000000000000000000000000000000012000000000000000000000000000000000000000000000000000354a6ba7a1800000000000000000000000000000000000000000000000000000000000000000c8000000000000000000000000000000000000000000000000000000000000001a466573746976616c204b756c696e6572204e7573616e74617261000000000000000000000000000000000000000000000000000000000000000000000000000a323032362d30322d33300000000000000000000000000000000000000000000000000000000000000000000000000000000000000000000000000000000000164c6170616e67616e205075707574616e2c2042616c6900000000000000000000",
        "nonce": "0x5",
        "chainId": "0x7a69"
      },
      "additionalContracts": [],
      "isFixedGasLimit": false
    },
    {
      "hash": "0x1ce3caeb729e85230c537baca81f3234ff81b33f16cba347d0987d79f2bb10c5",
      "transactionType": "CALL",
      "contractName": "TicketNFT",
      "contractAddress": "0x95bd8d42f30351685e96c62eddc0d0613bf9a87a",
      "function": "createEvent(string,string,string,uint256,uint256)",
      "arguments": [
        "Stand Up Comedy Special",
        "2026-02-28",
        "Teater Besar, TIM",
        "40000000000000000",
        "300"
      ],
      "transaction": {
        "from": "0x23618e81e3f5cdf7f54c3d65f7fbc0abf5b21e8f",
        "to": "0x95bd8d42f30351685e96c62eddc0d0613bf9a87a",
        "gas": "0x3c868",
        "value": "0x0",
        "input": "0xf5f00d8400000000000000000000000000000000000000000000000000000000000000a000000000000000000000000000000000000000000000000000000000000000e00000000000000000000000000000000000000000000000000000000000000120000000000000000000000000000000000000000000000000008e1bc9bf040000000000000000000000000000000000000000000000000000000000000000012c00000000000000000000000000000000000000000000000000000000000000175374616e6420557020436f6d656479205370656369616c000000000000000000000000000000000000000000000000000000000000000000000000000000000a323032362d30322d32380000000000000000000000000000000000000000000000000000000000000000000000000000000000000000000000000000000000115465617465722042657361722c2054494d000000000000000000000000000000",
        "nonce": "0x6",
        "chainId": "0x7a69"
      },
      "additionalContracts": [],
      "isFixedGasLimit": false
    },
    {
      "hash": "0x7c23addb938d47e89e704e576110a46597313767484c6810846d6b2d7ae81b62",
      "transactionType": "CALL",
      "contractName": "TicketNFT",
      "contractAddress": "0x95bd8d42f30351685e96c62eddc0d0613bf9a87a",
      "function": "createEvent(string,string,string,uint256,uint256)",
      "arguments": [
        "Yoga & Meditation Retreat",
        "2026-03-10",
        "Ubud Sanctuary",
        "80000000000000000",
        "20"
      ],
      "transaction": {
        "from": "0x23618e81e3f5cdf7f54c3d65f7fbc0abf5b21e8f",
        "to": "0x95bd8d42f30351685e96c62eddc0d0613bf9a87a",
        "gas": "0x3928a",
        "value": "0x0",
        "input": "0xf5f00d8400000000000000000000000000000000000000000000000000000000000000a000000000000000000000000000000000000000000000000000000000000000e00000000000000000000000000000000000000000000000000000000000000120000000000000000000000000000000000000000000000000011c37937e08000000000000000000000000000000000000000000000000000000000000000000140000000000000000000000000000000000000000000000000000000000000019596f67612026204d656469746174696f6e205265747265617400000000000000000000000000000000000000000000000000000000000000000000000000000a323032362d30332d313000000000000000000000000000000000000000000000000000000000000000000000000000000000000000000000000000000000000e556275642053616e637475617279000000000000000000000000000000000000",
        "nonce": "0x7",
        "chainId": "0x7a69"
      },
      "additionalContracts": [],
      "isFixedGasLimit": false
    }
  ],
  "receipts": [
    {
      "status": "0x1",
      "cumulativeGasUsed": "0x2654dd",
      "logs": [
        {
          "address": "0x95bd8d42f30351685e96c62eddc0d0613bf9a87a",
          "topics": [
            "0x8be0079c531659141344cd1fd0a4f28419497f9722a3daafe3b4186f6b6457e0",
            "0x0000000000000000000000000000000000000000000000000000000000000000",
            "0x00000000000000000000000023618e81e3f5cdf7f54c3d65f7fbc0abf5b21e8f"
          ],
          "data": "0x",
          "blockHash": "0xdef9b3ce3424d38f754230f1d63fc2860ad2e3d3f247b5ea70c6b4cb47983f25",
          "blockNumber": "0x1",
          "blockTimestamp": "0x6994708b",
          "transactionHash": "0xd372f4631fe5d7d46d7e98d455d20a2d39e803e5ce768e5ffff335a4e0e9e83b",
          "transactionIndex": "0x0",
          "logIndex": "0x0",
          "removed": false
        }
      ],
      "logsBloom": "0x00800000000000000000000000000000000000000000000000800000000000000000000000000400000000000000000000000000000000000000000000000000000000000000000000000000000000000001000000000000000000000000000000000000020000000000000000000800000000000000000000000000000000c00000000000000000000000024000000000000000000000000000000000000000000000000000000000000000000000000000000000000000000000000000000000000000000000000000000000000000000000000000000000000000000020000000000000000000000000000000000000000000000000000000008000000000",
      "type": "0x2",
      "transactionHash": "0xd372f4631fe5d7d46d7e98d455d20a2d39e803e5ce768e5ffff335a4e0e9e83b",
      "transactionIndex": "0x0",
      "blockHash": "0xdef9b3ce3424d38f754230f1d63fc2860ad2e3d3f247b5ea70c6b4cb47983f25",
      "blockNumber": "0x1",
      "gasUsed": "0x2654dd",
      "effectiveGasPrice": "0x3b9aca01",
      "blobGasPrice": "0x1",
      "from": "0x23618e81e3f5cdf7f54c3d65f7fbc0abf5b21e8f",
      "to": null,
      "contractAddress": "0x95bd8d42f30351685e96c62eddc0d0613bf9a87a"
    },
    {
      "status": "0x1",
      "cumulativeGasUsed": "0xab07f",
      "logs": [],
      "logsBloom": "0x00000000000000000000000000000000000000000000000000000000000000000000000000000000000000000000000000000000000000000000000000000000000000000000000000000000000000000000000000000000000000000000000000000000000000000000000000000000000000000000000000000000000000000000000000000000000000000000000000000000000000000000000000000000000000000000000000000000000000000000000000000000000000000000000000000000000000000000000000000000000000000000000000000000000000000000000000000000000000000000000000000000000000000000000000000000",
      "type": "0x2",
      "transactionHash": "0xd41eb15f5e01a710aecf9e8a804be05324d901b8b533545c114cb6922546b5d8",
      "transactionIndex": "0x0",
      "blockHash": "0xddf8cb7159aa9ebd63867e5c2cc80ada52ba6cb6faa8c96e33a0816e0d76772f",
      "blockNumber": "0x2",
      "gasUsed": "0xab07f",
      "effectiveGasPrice": "0x3566de9e",
      "blobGasPrice": "0x1",
      "from": "0x23618e81e3f5cdf7f54c3d65f7fbc0abf5b21e8f",
      "to": null,
      "contractAddress": "0x98eddadcfde04dc22a0e62119617e74a6bc77313"
    },
    {
      "status": "0x1",
      "cumulativeGasUsed": "0xb6542",
      "logs": [],
      "logsBloom": "0x00000000000000000000000000000000000000000000000000000000000000000000000000000000000000000000000000000000000000000000000000000000000000000000000000000000000000000000000000000000000000000000000000000000000000000000000000000000000000000000000000000000000000000000000000000000000000000000000000000000000000000000000000000000000000000000000000000000000000000000000000000000000000000000000000000000000000000000000000000000000000000000000000000000000000000000000000000000000000000000000000000000000000000000000000000000",
      "type": "0x2",
      "transactionHash": "0xce4736055bdea95dd867701e59df3c9c484b92105ffd916e992966e2f3278f0e",
      "transactionIndex": "0x1",
      "blockHash": "0xddf8cb7159aa9ebd63867e5c2cc80ada52ba6cb6faa8c96e33a0816e0d76772f",
      "blockNumber": "0x2",
      "gasUsed": "0xb4c3",
      "effectiveGasPrice": "0x3566de9e",
      "blobGasPrice": "0x1",
      "from": "0x23618e81e3f5cdf7f54c3d65f7fbc0abf5b21e8f",
      "to": "0x95bd8d42f30351685e96c62eddc0d0613bf9a87a",
      "contractAddress": null
    },
    {
      "status": "0x1",
      "cumulativeGasUsed": "0x2967d",
      "logs": [
        {
          "address": "0x95bd8d42f30351685e96c62eddc0d0613bf9a87a",
          "topics": [
            "0x42e6867e52299b45991308391cccb9ee79466d194059ff10fc15c2d88f0ea061",
            "0x0000000000000000000000000000000000000000000000000000000000000001"
          ],
          "data": "0x0000000000000000000000000000000000000000000000000000000000000060000000000000000000000000000000000000000000000000000000000000001e000000000000000000000000000000000000000000000000006a94d74f430000000000000000000000000000000000000000000000000000000000000000001b4d6f74696f6e2044657369676e20576f726b73686f7020323032350000000000",
          "blockHash": "0xc0fd9b3076d76435bb000326a1ac90f0783e950bd0443cdb55d76d464a09397a",
          "blockNumber": "0x3",
          "blockTimestamp": "0x6994708b",
          "transactionHash": "0xb4d051758d5d38f9598a0abb4ba94648cb9ae77536804865e41ad13ad9673978",
          "transactionIndex": "0x0",
          "logIndex": "0x0",
          "removed": false
        }
      ],
      "logsBloom": "0x00000000000000000000000000000000000000000000000000000000000000000000000000000400000000000000000000000000000000000000000000040000000000000000000000000000000000000000000000040000000000000000000000000000001000000000000000000000000000000000000000000000000000800000000000000000000000004000000000000000000000000000000000000000000000000000000000000000000000000000000000000000000000000000000000000000000000000000004000000000000000000000000000000000000040000000000000000000000000000000000020000000000000000000000000000000",
      "type": "0x2",
      "transactionHash": "0xb4d051758d5d38f9598a0abb4ba94648cb9ae77536804865e41ad13ad9673978",
      "transactionIndex": "0x0",
      "blockHash": "0xc0fd9b3076d76435bb000326a1ac90f0783e950bd0443cdb55d76d464a09397a",
      "blockNumber": "0x3",
      "gasUsed": "0x2967d",
      "effectiveGasPrice": "0x2f0f1762",
      "blobGasPrice": "0x1",
      "from": "0x23618e81e3f5cdf7f54c3d65f7fbc0abf5b21e8f",
      "to": "0x95bd8d42f30351685e96c62eddc0d0613bf9a87a",
      "contractAddress": null
    },
    {
      "status": "0x1",
      "cumulativeGasUsed": "0x52c82",
      "logs": [
        {
          "address": "0x95bd8d42f30351685e96c62eddc0d0613bf9a87a",
          "topics": [
            "0x42e6867e52299b45991308391cccb9ee79466d194059ff10fc15c2d88f0ea061",
            "0x0000000000000000000000000000000000000000000000000000000000000002"
          ],
          "data": "0x0000000000000000000000000000000000000000000000000000000000000060000000000000000000000000000000000000000000000000000000000000138800000000000000000000000000000000000000000000000001aa535d3d0c00000000000000000000000000000000000000000000000000000000000000000016496e646f6e65736961204f70656e3a2046696e616c7300000000000000000000",
          "blockHash": "0xc0fd9b3076d76435bb000326a1ac90f0783e950bd0443cdb55d76d464a09397a",
          "blockNumber": "0x3",
          "blockTimestamp": "0x6994708b",
          "transactionHash": "0x3a9ebbb06425a7f73bebb3568a13a84099000c8e7b19959ebfe20fa4dc639cac",
          "transactionIndex": "0x1",
          "logIndex": "0x1",
          "removed": false
        }
      ],
      "logsBloom": "0x04000000000000000000000000000000000000000000000000000000000000000000000000000400000000000000000000000000000000000000000000000000000000000000000000000000000000000000000000000000000000000000000000000000001000000000000000000000000000000000000000000000000000800000000000000000000000004000000000000000000000000000000000000000000000000000000000000100000000000000000000000000000000000000000000000000000000000000004000000000000000000000000000000000000000000000000000000000000000000000000020000000008000000000000000000000",
      "type": "0x2",
      "transactionHash": "0x3a9ebbb06425a7f73bebb3568a13a84099000c8e7b19959ebfe20fa4dc639cac",
      "transactionIndex": "0x1",
      "blockHash": "0xc0fd9b3076d76435bb000326a1ac90f0783e950bd0443cdb55d76d464a09397a",
      "blockNumber": "0x3",
      "gasUsed": "0x29605",
      "effectiveGasPrice": "0x2f0f1762",
      "blobGasPrice": "0x1",
      "from": "0x23618e81e3f5cdf7f54c3d65f7fbc0abf5b21e8f",
      "to": "0x95bd8d42f30351685e96c62eddc0d0613bf9a87a",
      "contractAddress": null
    },
    {
      "status": "0x1",
      "cumulativeGasUsed": "0x7c30b",
      "logs": [
        {
          "address": "0x95bd8d42f30351685e96c62eddc0d0613bf9a87a",
          "topics": [
            "0x42e6867e52299b45991308391cccb9ee79466d194059ff10fc15c2d88f0ea061",
            "0x0000000000000000000000000000000000000000000000000000000000000003"
          ],
          "data": "0x000000000000000000000000000000000000000000000000000000000000006000000000000000000000000000000000000000000000000000000000000000c800000000000000000000000000000000000000000000000000354a6ba7a18000000000000000000000000000000000000000000000000000000000000000001a466573746976616c204b756c696e6572204e7573616e74617261000000000000",
          "blockHash": "0xc0fd9b3076d76435bb000326a1ac90f0783e950bd0443cdb55d76d464a09397a",
          "blockNumber": "0x3",
          "blockTimestamp": "0x6994708b",
          "transactionHash": "0x58b17666522714bdf193813a8804c4a29e75f5601e99a752b0dc266e6392377f",
          "transactionIndex": "0x2",
          "logIndex": "0x2",
          "removed": false
        }
      ],
      "logsBloom": "0x00000000000000000000000000000000000000000000000000000000000000000000000000000400000000000000000000000000020000000000000000000000000000000000000000000000000000000000000000000000000000000000000000000000001000000000000000000000000000000000000000000000000000800000000000000000000000004000000000000000000000000000000000000000000000000000000000000000000000000000000000800000000000000000400000000000000000000000004000000000000000000000000000000000000000000000000000000000000000000000000020000000000000000000000000000000",
      "type": "0x2",
      "transactionHash": "0x58b17666522714bdf193813a8804c4a29e75f5601e99a752b0dc266e6392377f",
      "transactionIndex": "0x2",
      "blockHash": "0xc0fd9b3076d76435bb000326a1ac90f0783e950bd0443cdb55d76d464a09397a",
      "blockNumber": "0x3",
      "gasUsed": "0x29689",
      "effectiveGasPrice": "0x2f0f1762",
      "blobGasPrice": "0x1",
      "from": "0x23618e81e3f5cdf7f54c3d65f7fbc0abf5b21e8f",
      "to": "0x95bd8d42f30351685e96c62eddc0d0613bf9a87a",
      "contractAddress": null
    },
    {
      "status": "0x1",
      "cumulativeGasUsed": "0xa5934",
      "logs": [
        {
          "address": "0x95bd8d42f30351685e96c62eddc0d0613bf9a87a",
          "topics": [
            "0x42e6867e52299b45991308391cccb9ee79466d194059ff10fc15c2d88f0ea061",
            "0x0000000000000000000000000000000000000000000000000000000000000004"
          ],
          "data": "0x0000000000000000000000000000000000000000000000000000000000000060000000000000000000000000000000000000000000000000000000000000012c000000000000000000000000000000000000000000000000008e1bc9bf04000000000000000000000000000000000000000000000000000000000000000000175374616e6420557020436f6d656479205370656369616c000000000000000000",
          "blockHash": "0xc0fd9b3076d76435bb000326a1ac90f0783e950bd0443cdb55d76d464a09397a",
          "blockNumber": "0x3",
          "blockTimestamp": "0x6994708b",
          "transactionHash": "0x1ce3caeb729e85230c537baca81f3234ff81b33f16cba347d0987d79f2bb10c5",
          "transactionIndex": "0x3",
          "logIndex": "0x3",
          "removed": false
        }
      ],
      "logsBloom": "0x00000000000000000000000000000000000000000000000000000000000000000000000000000400000000000000000000000000000000000000000000000000000000000000000000000000000000000000000000000000000000000000000008000000001000000000000000000000000000000000000000000000000000800000000000000000000000004000000000000000000000000000000000000000000000000000000000000000000000000000000000000000002000000000000000000000000000000000004000000000000000008000000000000000000000000000000000000000000000000000000020000000000000000000000000000000",
      "type": "0x2",
      "transactionHash": "0x1ce3caeb729e85230c537baca81f3234ff81b33f16cba347d0987d79f2bb10c5",
      "transactionIndex": "0x3",
      "blockHash": "0xc0fd9b3076d76435bb000326a1ac90f0783e950bd0443cdb55d76d464a09397a",
      "blockNumber": "0x3",
      "gasUsed": "0x29629",
      "effectiveGasPrice": "0x2f0f1762",
      "blobGasPrice": "0x1",
      "from": "0x23618e81e3f5cdf7f54c3d65f7fbc0abf5b21e8f",
      "to": "0x95bd8d42f30351685e96c62eddc0d0613bf9a87a",
      "contractAddress": null
    },
    {
      "status": "0x1",
      "cumulativeGasUsed": "0xcef51",
      "logs": [
        {
          "address": "0x95bd8d42f30351685e96c62eddc0d0613bf9a87a",
          "topics": [
            "0x42e6867e52299b45991308391cccb9ee79466d194059ff10fc15c2d88f0ea061",
            "0x0000000000000000000000000000000000000000000000000000000000000005"
          ],
          "data": "0x00000000000000000000000000000000000000000000000000000000000000600000000000000000000000000000000000000000000000000000000000000014000000000000000000000000000000000000000000000000011c37937e0800000000000000000000000000000000000000000000000000000000000000000019596f67612026204d656469746174696f6e205265747265617400000000000000",
          "blockHash": "0xc0fd9b3076d76435bb000326a1ac90f0783e950bd0443cdb55d76d464a09397a",
          "blockNumber": "0x3",
          "blockTimestamp": "0x6994708b",
          "transactionHash": "0x7c23addb938d47e89e704e576110a46597313767484c6810846d6b2d7ae81b62",
          "transactionIndex": "0x4",
          "logIndex": "0x4",
          "removed": false
        }
      ],
      "logsBloom": "0x00000000000000000000000000000000000000000000000000000000000000000000000000000400000000000000000000000000000000000000000000000000000010000000000000000000000000000000000000000000000000000000000000000000001000000000000000000000000000000000000000000000000000800000000000000000000000004000001000000800000000000000000000000000000000000000000000000000000000000000000000000000000000000000000000000000000000000000004000000000000000000000000000000000000000000000000000000000000000000000000020000000000000000000000000000000",
      "type": "0x2",
      "transactionHash": "0x7c23addb938d47e89e704e576110a46597313767484c6810846d6b2d7ae81b62",
      "transactionIndex": "0x4",
      "blockHash": "0xc0fd9b3076d76435bb000326a1ac90f0783e950bd0443cdb55d76d464a09397a",
      "blockNumber": "0x3",
      "gasUsed": "0x2961d",
      "effectiveGasPrice": "0x2f0f1762",
      "blobGasPrice": "0x1",
      "from": "0x23618e81e3f5cdf7f54c3d65f7fbc0abf5b21e8f",
      "to": "0x95bd8d42f30351685e96c62eddc0d0613bf9a87a",
      "contractAddress": null
    }
  ],
  "libraries": [],
  "pending": [],
  "returns": {},
  "timestamp": 1771335820174,
  "chain": 31337,
  "commit": "87d3571"
}