{
  "transactions": [
    {
      "hash": "0xc33cbda5a8e37c2e933cd0063da91f186f5dceb9d496c97c52e68ffcae4d464c",
      "transactionType": "CREATE",
      "contractName": "TicketNFT",
      "contractAddress": "0x057ef64e23666f000b34ae31332854acbd1c8544",
      "function": null,
      "arguments": null,
      "transaction": {
        "from": "0x90f79bf6eb2c4f870365e785982e1f101e93b906",
        "gas": "0x352fcc",
        "value": "0x0",
        "input": "0x6080346200034b576001600160401b03906040908082018381118282101762000269578252600c81526020926b456c6c69707469436865636b60a01b8483015282519383850185811083821117620002695784526003855262454c4360e81b8186015282519082821162000269575f54916001948584811c9416801562000340575b838510146200024a578190601f94858111620002ed575b50839085831160011462000289575f926200027d575b50505f19600383901b1c191690851b175f555b8551928311620002695783548481811c911680156200025e575b828210146200024a5782811162000202575b50809183116001146200019d5750819293945f9262000191575b50505f19600383901b1c191690821b1781555b33156200017a5760068054336001600160a01b0319821681179092559251926001600160a01b03167f8be0079c531659141344cd1fd0a4f28419497f9722a3daafe3b4186f6b6457e05f80a380600755600855612d369081620003508239f35b8151631e4fbdf760e01b81525f6004820152602490fd5b015190505f8062000107565b90601f19831695845f52825f20925f905b888210620001ea5750508385969710620001d1575b505050811b0181556200011a565b01515f1960f88460031b161c191690555f8080620001c3565b808785968294968601518155019501930190620001ae565b845f52815f208380860160051c82019284871062000240575b0160051c019085905b82811062000234575050620000ed565b5f815501859062000224565b925081926200021b565b634e487b7160e01b5f52602260045260245ffd5b90607f1690620000db565b634e487b7160e01b5f52604160045260245ffd5b015190505f80620000ae565b90879350601f198316915f8052855f20925f5b87828210620002d65750508411620002bd575b505050811b015f55620000c1565b01515f1960f88460031b161c191690555f8080620002af565b8385015186558b979095019493840193016200029c565b9091505f8052835f208580850160051c82019286861062000336575b918991869594930160051c01915b8281106200032757505062000098565b5f815585945089910162000317565b9250819262000309565b93607f169362000081565b5f80fdfe6080806040526004361015610012575f80fd5b5f3560e01c90816301ffc9a7146122675750806306fdde03146121c0578063081812fc14612184578063095ea7b3146120a35780630a15fa8b14611fee5780630b79143014611f495780631af32d7814611f1f57806323b872dd14611f085780632b7ac3f314611ee05780633ccfd60b14611e6e57806342842e0e14611e4157806350b4471214611df057806352c55db914611dc75780635437988d14611d845780636352211e14611d545780636d1884e014611ce257806370a0823114611c8c578063715018a614611c315780637dc379fa14611b8f5780638da5cb5b14611b6757806395d89b4114611a9d578063a22cb465146119f3578063a71820511461165c578063b88d4fde146115f1578063c27a500d146114c7578063c87b56dd146108c6578063d082e38114610889578063e13102e914610847578063e985e9c5146107f5578063f2fde38b14610769578063f5f00d841461024c5763ff99a0631461017c575f80fd5b34610248576020806003193601126102485761021e9060043561019e8161289e565b50805f52600a825260405f20604051906101b78261237c565b606060ff600383549384865260018101548887015260028101546040870152015416920191151582525f52600983526102396101f560405f206127f1565b9161022b835195604081860151950151925115159460405198899860a08a5260a08a01906122f3565b91888303908901526122f3565b9085820360408701526122f3565b91606084015260808301520390f35b5f80fd5b346102485760a0366003190112610248576004356001600160401b0381116102485761027c903690600401612591565b906024356001600160401b0381116102485761029c903690600401612591565b6044929192356001600160401b038111610248576102c1610309913690600401612591565b6102c96128d8565b6102fd600854966102d988612851565b600855604051956102e987612397565b6102f4368b8a61255b565b8752369161255b565b6020850152369161255b565b604082015260643560608201526084356080820152600160a0820152825f52600960205260405f209080518051906001600160401b0382116105cc5781906103518554612344565b601f811161071c575b50602090601f83116001146106b4575f926106a9575b50508160011b915f199060031b1c19161782555b60208101518051906001600160401b0382116105cc5781906103a96001860154612344565b601f8111610659575b50602090601f83116001146105eb575f926105e0575b50508160011b915f199060031b1c19161760018301555b60408101518051906001600160401b0382116105cc576104026002850154612344565b601f8111610588575b509160209693918695938890601f83116001146104e75760a07f42e6867e52299b45991308391cccb9ee79466d194059ff10fc15c2d88f0ea0619796948461049c95608098956005955f926104dc575b50508160011b915f199060031b1c19161760028501555b606081015160038501558681015160048501550151151591019060ff801983541691151516179055565b8260405193849260608452816060850152848401375f828201840152608435888301526064356040830152601f01601f19168101030190a2604051908152f35b015190508e8061045b565b60028594939298979695015f52895f20905f5b601f198416811061056e575061049c936001846005947f42e6867e52299b45991308391cccb9ee79466d194059ff10fc15c2d88f0ea0619b9c60a09560809b9a98601f19811610610556575b505050811b016002850155610472565b01515f1960f88460031b161c191690558e8080610546565b818a01518355988b01988a98506001909201918b016104fa565b600285015f5260205f20601f840160051c8101602085106105c5575b601f830160051c820181106105ba57505061040b565b5f81556001016105a4565b50806105a4565b634e487b7160e01b5f52604160045260245ffd5b0151905087806103c8565b9250600185015f5260205f20905f935b601f198416851061063e576001945083601f19811610610626575b505050811b0160018301556103df565b01515f1960f88460031b161c19169055878080610616565b818101518355602094850194600190930192909101906105fb565b909150600185015f5260205f20601f840160051c8101602085106106a2575b90849392915b601f830160051c820181106106945750506103b2565b5f815585945060010161067e565b5080610678565b015190508780610370565b9250845f5260205f20905f935b601f1984168510610701576001945083601f198116106106e9575b505050811b018255610384565b01515f1960f88460031b161c191690558780806106dc565b818101518355602094850194600190930192909101906106c1565b909150845f5260205f20601f840160051c810160208510610762575b90849392915b601f830160051c8201811061075457505061035a565b5f815585945060010161073e565b5080610738565b3461024857602036600319011261024857610782612318565b61078a6128d8565b6001600160a01b039081169081156107dd57600654826bffffffffffffffffffffffff60a01b821617600655167f8be0079c531659141344cd1fd0a4f28419497f9722a3daafe3b4186f6b6457e05f80a3005b604051631e4fbdf760e01b81525f6004820152602490fd5b346102485760403660031901126102485761080e612318565b61081661232e565b9060018060a01b038091165f52600560205260405f2091165f52602052602060ff60405f2054166040519015158152f35b34610248576020366003190112610248576108606128d8565b6004355f908152600960205260409020600501805460ff818116151660ff19909116179055005b005b34610248575f366003190112610248576007545f1981019081116108b257602090604051908152f35b634e487b7160e01b5f52601160045260245ffd5b3461024857602080600319360112610248576113e96111c56111496101246004356108f08161289e565b50805f52600a865260405f20906040519161090a8361237c565b606060ff600383549384875260018101548c88015260028101546040880152015416930192151583525f526009875261094560405f206127f1565b805192611157898301946111496105978751928d60408801516109678a612abf565b8851909190156114a25760405161097d816123cd565b600781526608d9598d0d0d0d60ca1b84820152905b89511561147a576040516109a5816123cd565b600881526738a724c81554d15160c21b85820152975b6040519889967f3c7376672077696474683d2234303022206865696768743d223630302220786d878901527f6c6e733d22687474703a2f2f7777772e77332e6f72672f323030302f737667226040890152601f60f91b6060890152651e3232b3399f60d11b60618901527f3c6c696e6561724772616469656e742069643d2267726164222078313d22302560678901527f222079313d223025222078323d2231303025222079323d2231303025223e000060878901527f3c73746f70206f66667365743d22302522207374796c653d2273746f702d636f60a58901527f6c6f723a726762612832372c2039362c203231362c2031293b73746f702d6f7060c58901526a30b1b4ba3c9d189110179f60a91b60e58901527f3c73746f70206f66667365743d223130302522207374796c653d2273746f702d60f08901527f636f6c6f723a72676261283232312c203231372c20362c2031293b73746f702d6101108901526c37b830b1b4ba3c9d189110179f60991b610130890152701e17b634b732b0b923b930b234b2b73a1f60791b61013d890152661e17b232b3399f60c91b61014e8901527f3c726563742077696474683d2234303022206865696768743d223630302220666101558901527f696c6c3d2275726c28236772616429222072783d223230222f3e0000000000006101758901527f3c7265637420783d2232302220793d223230222077696474683d22333630222061018f8901527f6865696768743d22353630222066696c6c3d227768697465222072783d2231356101af89015271111037b830b1b4ba3c9e9118171c9a91179f60711b6101cf8901527f3c7465787420783d223230302220793d2238302220666f6e742d66616d696c796101e18901527f3d22417269616c2220666f6e742d73697a653d2232382220666f6e742d7765696102018901527f6768743d22626f6c642220746578742d616e63686f723d226d6964646c6522206102218901526e3334b6361e91119bb199b0b2b2111f60891b61024189015261025090610cbd815180928a858d0191016122d2565b880190661e17ba32bc3a1f60c91b968780958180948601527f3c7465787420783d223230302220793d223134302220666f6e742d66616d696c6102578601527f793d22417269616c2220666f6e742d73697a653d2231382220746578742d616e6102778601527f63686f723d226d6964646c65222066696c6c3d2223346235353633223e000000610297860152640784fc9c2960dd1b6102b48601526102b994610d708c835193849189850191016122d2565b01938401527f3c7465787420783d223230302220793d223138302220666f6e742d66616d696c6102c08401527f793d22417269616c2220666f6e742d73697a653d2231362220746578742d616e6102e0840152817f63686f723d226d6964646c65222066696c6c3d2223366237323830223e0000009687610300860152640784fc9c6960dd1b61031d86015261032294610e138c835193849189850191016122d2565b01938401527f3c7265637420783d2235302220793d22323230222077696474683d22333030226103298401527f206865696768743d2232222066696c6c3d2223653565376562222f3e000000006103498401527f3c7465787420783d223230302220793d223238302220666f6e742d66616d696c6103658401527f793d22417269616c2220666f6e742d73697a653d2234382220666f6e742d77656103858401527f696768743d22626f6c642220746578742d616e63686f723d226d6964646c65226103a58401526f103334b6361e91119bb199b0b2b2111f60811b6103c5840152602360f81b6103d58401526103d692610f16825180938c87850191016122d2565b01918201527f3c7465787420783d223230302220793d223332302220666f6e742d66616d696c6103dd8201527f793d22417269616c2220666f6e742d73697a653d2231342220746578742d616e6103fd8201527f63686f723d226d6964646c65222066696c6c3d2223396361336166223e000000948561041d83015268151250d2d15508125160ba1b61043a8301528361044383015261044a91610fc2825180938b86850191016122d2565b019061111f60f11b90820152610fe461044c9783519384918a850191016122d2565b01948501527f3c7265637420783d2235302220793d22343830222077696474683d22333030226104538501527f206865696768743d223830222066696c6c3d2223663366346636222072783d2261047385015264189811179f60d91b6104938501527f3c7465787420783d223230302220793d223531302220666f6e742d66616d696c6104988501527f793d22417269616c2220666f6e742d73697a653d2231302220746578742d616e90816104b88601526104d88501527f504f574552454420425920454c4c49505449434845434b0000000000000000006104f58501528261050c8501527f3c7465787420783d223230302220793d223533352220666f6e742d66616d696c6105138501526105338401526105538301527f426c6f636b636861696e205665726966696564205469636b657400000000000061057083015261058a820152651e17b9bb339f60d11b610591820152036105778101845201826123e8565b611151612a1e565b90612c01565b9382519461117161116786612abf565b9451925195612abf565b925115611453576112e9604051611187816123cd565b6004815263155cd95960e21b8d820152945b8c6111ef60296040519d8e809c683d913730b6b2911d1160b91b868301528581519485930191016122d2565b8a01916d202d205469636b6574204944202360901b602984015283519384916037850191016122d2565b019261088b60f21b928360378601527f226465736372697074696f6e223a224f6666696369616c206576656e74207469603986015268031b5b2ba103337b9160bd1b60598601528d61129883518285019761124e82606283018b6122d2565b01918660628401527f22696d616765223a22646174613a696d6167652f7376672b786d6c3b626173656064840152620d8d0b60ea1b608484015283519384916087850191016122d2565b019260878401526d2261747472696275746573223a5b60901b60898401527f7b2274726169745f74797065223a224576656e74222c2276616c7565223a2200609784015251809360b68401906122d2565b019262089f4b60ea1b938460b68201527f7b2274726169745f74797065223a2244617465222c2276616c7565223a22000060b9820152611332825180938d60d7850191016122d2565b018360d78201527f7b2274726169745f74797065223a225469636b6574204944222c2276616c756560da82015262111d1160e91b60fa82015261137e825180938c60fd850191016122d2565b019160fd8301527f7b2274726169745f74797065223a22537461747573222c2276616c7565223a22610100830152610120916113c2825180938b86850191016122d2565b019061227d60f01b90820152615d7d60f01b610122820152036101048101845201826123e8565b9061143b603d60405180947f646174613a6170706c69636174696f6e2f6a736f6e3b6261736536342c0000008583015261142b815180928786860191016122d2565b810103601d8101855201836123e8565b61144f6040519282849384528301906122f3565b0390f35b6112e9604051611462816123cd565b600681526541637469766560d01b8d82015294611199565b604051611486816123cd565b600a815269e29c932041435449564560b01b85820152976109bb565b6040516114ae816123cd565b60078152662331306239383160c81b8482015290610992565b34610248575f366003190112610248576008545f19908181019081116108b2576114f08161285f565b916114fe60405193846123e8565b81835261150a8261285f565b60209290601f19015f5b8181106115d557505060019160015b8281111561158c5750505060405191808301818452845180915260408401918060408360051b8701019601925f905b83821061155f5786880387f35b9091929394838061157b839a603f198b820301865289516124e0565b999701959493919091019101611552565b805f969496526009855260405f2090828101918183116108b2576115cd926115b66115c7926127f1565b6115c08289612876565b5286612876565b50612851565b949294611523565b84906115e29694966127be565b82828701015201949294611514565b346102485760803660031901126102485761160a612318565b61161261232e565b90604435606435926001600160401b03841161024857366023850112156102485761164a61088794369060248160040135910161255b565b926116568383836125be565b33612904565b60403660031901126102485760043561167361232e565b90805f526020916009835261168a60405f206127f1565b60a0810151156119e157825f52600b845260405f2054608082015111156119cf576060015134106119bd57600754916116c283612851565b600755805f52600b845260405f206116da8154612851565b8091556117376040516116ec8161237c565b83815260038782018481526040830142815260608401915f8352895f52600a8b5260405f209451855551600185015551600284015551151591019060ff801983541691151516179055565b604051611743816123b2565b5f81526001600160a01b03848116949085156119a557865f52600288528060405f20541615158061199d575b611977575b865f526002885260405f20541686868215159283611946575b5f82815260038c5260408082208054600101905584825260028d52812080546001600160a01b031916841790557fddf252ad1be2c89b69c2b068fc378daa952ba7f163c4a11628f55a4df523b3ef9080a461192e57859187913b61181f575b507f4fe0f5bb11eb6ab81c428fb83261719e5b22f84b3e1942cd491c3777504bb8519192604051908152a4604051908152f35b91505060405186818061185a630a85bd0160e11b958683523360048401525f60248401528a60448401526080606484015260848301906122f3565b03815f895af15f91816118ee575b5061189e57868561187761278f565b805192908361189957604051633250574960e11b815260048101849052602490fd5b019050fd5b6001600160e01b031916036118d55783857f4fe0f5bb11eb6ab81c428fb83261719e5b22f84b3e1942cd491c3777504bb8516117ec565b604051633250574960e11b815260048101849052602490fd5b9091508781813d8311611927575b61190681836123e8565b8101031261024857516001600160e01b031981168103610248579088611868565b503d6118fc565b6040516339e3563760e11b81525f6004820152602490fd5b5f8381526004602052604080822080546001600160a01b031916905582825260038d52902080545f1901905561178d565b600a885260ff600360405f200154161561177457604051633b0653eb60e01b8152600490fd5b50600161176f565b604051633250574960e11b81525f6004820152602490fd5b60405163cd1c886760e01b8152600490fd5b6040516352df9fe560e01b8152600490fd5b6040516301e1837960e31b8152600490fd5b3461024857604036600319011261024857611a0c612318565b6024359081151590818303610248576001600160a01b0316918215611a8457611a5690335f52600560205260405f20845f5260205260405f209060ff801983541691151516179055565b6040519081527f17307eab39ab6107e8899845ad3d59bd9653f200f220920489ca2b5937696c3160203392a3005b604051630b61174360e31b815260048101849052602490fd5b34610248575f366003190112610248576040515f60018260015492611ac184612344565b92838352602094856001821691825f14611b47575050600114611aec575b5061143b925003836123e8565b84915060015f527fb10e2d527612073b26eecdfd717e6a320cf44b4afac2b0732d9fcbe2b7fa0cf6905f915b858310611b2f57505061143b935082010185611adf565b80548389018501528794508693909201918101611b18565b60ff19168582015261143b95151560051b8501019250879150611adf9050565b34610248575f366003190112610248576006546040516001600160a01b039091168152602090f35b34610248576020366003190112610248576004355f6060604051611bb28161237c565b8281528260208201528260408201520152611bcc8161289e565b505f52600a602052608060405f20604051611be68161237c565b815491828252600181015460208301908152606060ff600360028501549460408701958652015416930192151583526040519384525160208401525160408301525115156060820152f35b34610248575f36600319011261024857611c496128d8565b600680546001600160a01b031981169091555f906001600160a01b03167f8be0079c531659141344cd1fd0a4f28419497f9722a3daafe3b4186f6b6457e08280a3005b34610248576020366003190112610248576001600160a01b03611cad612318565b168015611cca575f526003602052602060405f2054604051908152f35b6040516322718ad960e21b81525f6004820152602490fd5b3461024857602036600319011261024857600435611cfe6127be565b5080158015611d48575b611d36575f52600960205261144f611d2260405f206127f1565b6040519182916020835260208301906124e0565b604051630c93477d60e41b8152600490fd5b50600854811015611d08565b34610248576020366003190112610248576020611d7260043561289e565b6040516001600160a01b039091168152f35b3461024857602036600319011261024857611d9d612318565b611da56128d8565b600c80546001600160a01b0319166001600160a01b0392909216919091179055005b34610248575f366003190112610248576008545f1981019081116108b257602090604051908152f35b34610248576020366003190112610248576004355f52600a602052608060405f2080549060018101549060ff6003600283015492015416916040519384526020840152604083015215156060820152f35b3461024857610887611e52366124ab565b9060405192611e60846123b2565b5f84526116568383836125be565b34610248575f36600319011261024857611e866128d8565b5f80808060018060a01b036006541647905af1611ea161278f565b5015611ea957005b60405162461bcd60e51b815260206004820152600f60248201526e1dda5d1a191c985dc819985a5b1959608a1b6044820152606490fd5b34610248575f36600319011261024857600c546040516001600160a01b039091168152602090f35b3461024857610887611f19366124ab565b916125be565b34610248576020366003190112610248576004355f52600b602052602060405f2054604051908152f35b34610248576020366003190112610248576004355f526009602052611fbc60405f20611f7481612409565b90611f8160018201612409565b611f8d60028301612409565b91611fd8600382015493611fca60ff60056004860154950154169460405198899860c08a5260c08a01906122f3565b9088820360208a01526122f3565b9086820360408801526122f3565b9260608501526080840152151560a08301520390f35b3461024857602036600319011261024857600c546001600160a01b0390600435908216330361209257805f52600a60205260ff600360405f2001541661208057805f52600a602052600360405f2001600160ff198254161790557f4f9c6210874b14266ea0f64418a0f7403a875226eae9483f5d9cd7663234db9a60206120748361289e565b604051428152941693a3005b604051630869773360e41b8152600490fd5b6040516282b42960e81b8152600490fd5b34610248576040366003190112610248576120bc612318565b6024356120c88161289e565b33151580612171575b80612148575b612130576001600160a01b039283169282918491167f8c5be1e5ebec7d5bd14f71427d1e84f3dd0314c0f7b2291e5b200ac8c7c3b9255f80a45f90815260046020526040902080546001600160a01b0319169091179055005b60405163a9fbf51f60e01b8152336004820152602490fd5b5060018060a01b0381165f52600560205260405f20335f5260205260ff60405f205416156120d7565b506001600160a01b0381163314156120d1565b34610248576020366003190112610248576004356121a18161289e565b505f526004602052602060018060a01b0360405f205416604051908152f35b34610248575f366003190112610248576040515f805490826121e183612344565b91828252602093600190856001821691825f14611b4757505060011461220e575061143b925003836123e8565b5f808052859250907f290decd9548b62a8d60345a988386fc84ba6bc95484008f6362f93160ef3e5635b85831061224f57505061143b935082010185611adf565b80548389018501528794508693909201918101612238565b34610248576020366003190112610248576004359063ffffffff60e01b8216809203610248576020916380ac58cd60e01b81149081156122c1575b81156122b0575b5015158152f35b6301ffc9a760e01b149050836122a9565b635b5e139f60e01b811491506122a2565b5f5b8381106122e35750505f910152565b81810151838201526020016122d4565b9060209161230c815180928185528580860191016122d2565b601f01601f1916010190565b600435906001600160a01b038216820361024857565b602435906001600160a01b038216820361024857565b90600182811c92168015612372575b602083101461235e57565b634e487b7160e01b5f52602260045260245ffd5b91607f1691612353565b608081019081106001600160401b038211176105cc57604052565b60c081019081106001600160401b038211176105cc57604052565b602081019081106001600160401b038211176105cc57604052565b604081019081106001600160401b038211176105cc57604052565b90601f801991011681019081106001600160401b038211176105cc57604052565b9060405191825f825461241b81612344565b908184526020946001916001811690815f14612489575060011461244b575b505050612449925003836123e8565b565b5f90815285812095935091905b81831061247157505061244993508201015f808061243a565b85548884018501529485019487945091830191612458565b9250505061244994925060ff191682840152151560051b8201015f808061243a565b6060906003190112610248576001600160a01b0390600435828116810361024857916024359081168103610248579060443590565b9060a08061252161250f6124fd865160c0875260c08701906122f3565b602087015186820360208801526122f3565b604086015185820360408701526122f3565b9360608101516060850152608081015160808501520151151591015290565b6001600160401b0381116105cc57601f01601f191660200190565b92919261256782612540565b9161257560405193846123e8565b829481845281830111610248578281602093845f960137010152565b9181601f84011215610248578235916001600160401b038311610248576020838186019501011161024857565b6001600160a01b0391821692909183156119a557815f52602092600284528260409583875f205416151580612787575b61275b575b815f526002865283875f20541695331515806126c9575b5060029087612698575b825f5260038152885f2060018154019055835f5252865f20816bffffffffffffffffffffffff60a01b825416179055857fddf252ad1be2c89b69c2b068fc378daa952ba7f163c4a11628f55a4df523b3ef5f80a416928383036126775750505050565b6064945051926364283d7b60e01b8452600484015260248301526044820152fd5b5f84815260046020526040812080546001600160a01b03191690558881526003825289902080545f19019055612614565b919250908061271a575b156126e1579084915f61260a565b8685876126fe576024915190637e27328960e01b82526004820152fd5b604491519063177e802f60e01b82523360048301526024820152fd5b50338614801561273f575b806126d35750845f52600481523384885f205416146126d3565b50855f5260058152865f20335f52815260ff875f205416612725565b9050600a855260ff6003875f200154166127765783906125f3565b8551633b0653eb60e01b8152600490fd5b5060016125ee565b3d156127b9573d906127a082612540565b916127ae60405193846123e8565b82523d5f602084013e565b606090565b604051906127cb82612397565b5f60a0836060815260606020820152606060408201528260608201528260808201520152565b906040516127fe81612397565b60a060ff6005839561280f81612409565b855261281d60018201612409565b602086015261282e60028201612409565b604086015260038101546060860152600481015460808601520154161515910152565b5f1981146108b25760010190565b6001600160401b0381116105cc5760051b60200190565b805182101561288a5760209160051b010190565b634e487b7160e01b5f52603260045260245ffd5b5f818152600260205260409020546001600160a01b03169081156128c0575090565b60249060405190637e27328960e01b82526004820152fd5b6006546001600160a01b031633036128ec57565b60405163118cdaa760e01b8152336004820152602490fd5b9291803b612914575b5050505050565b604051630a85bd0160e11b8082526001600160a01b039586166004830152928516602482015260448101939093526080606484015290921692602090829081906129629060848301906122f3565b03815f875af15f91816129d9575b506129a7578261297e61278f565b80519190826129a057604051633250574960e11b815260048101839052602490fd5b6020915001fd5b6001600160e01b031916036129c157505f8080808061290d565b60249060405190633250574960e11b82526004820152fd5b9091506020813d602011612a16575b816129f5602093836123e8565b8101031261024857516001600160e01b03198116810361024857905f612970565b3d91506129e8565b60405190606082018281106001600160401b038211176105cc57604052604082527f6768696a6b6c6d6e6f707172737475767778797a303132333435363738392b2f6040837f4142434445464748494a4b4c4d4e4f505152535455565758595a61626364656660208201520152565b90612a9782612540565b612aa460405191826123e8565b8281528092612ab5601f1991612540565b0190602036910137565b805f917a184f03e93ff9f4daa797ed6e38ed64bf6a1f01000000000000000080821015612bf3575b506d04ee2d6d415b85acef810000000080831015612be4575b50662386f26fc1000080831015612bd5575b506305f5e10080831015612bc6575b5061271080831015612bb7575b506064821015612ba7575b600a80921015612b9d575b600190816021612b5660018701612a8d565b95860101905b612b68575b5050505090565b5f19019083906f181899199a1a9b1b9c1cb0b131b232b360811b8282061a835304918215612b9857919082612b5c565b612b61565b9160010191612b44565b9190606460029104910191612b39565b6004919392049101915f612b2e565b6008919392049101915f612b21565b6010919392049101915f612b12565b6020919392049101915f612b00565b60409350810491505f612ae7565b919091805115612ceb57805192600291600285018095116108b2576003948590046001600160fe1b03811681036108b257612c419060029694961b612a8d565b9260208401928291835184019760208901928351945f85525b8a8110612c9e57505050506003939495965052510680600114612c8c57600214612c82575090565b603d905f19015390565b50603d90815f19820153600119015390565b836004919b989b019a8b51600190603f9082828260121c16870101518453828282600c1c16870101518385015382828260061c168701015187850153168401015185820153019699612c5a565b509050604051612cfa816123b2565b5f81529056fea26469706673582212206a2946cf48ce7685ae3f0c8dcaefc165ecc73273620e1e037478eec847a8735464736f6c63430008180033",
        "nonce": "0x0",
        "chainId": "0x7a69"
      },
      "additionalContracts": [],
      "isFixedGasLimit": false
    },
    {
      "hash": "0xcbd20b394660358797bfeb824faf7f4ccf8fe8754f6a0a5c8e47d7e37a5acd27",
      "transactionType": "CREATE",
      "contractName": "TicketVerifier",
      "contractAddress": "0x261d8c5e9742e6f7f1076fa1f560894524e19cad",
      "function": null,
      "arguments": [
        "0x057ef64E23666F000b34aE31332854aCBd1c8544"
      ],
      "transaction": {
        "from": "0x90f79bf6eb2c4f870365e785982e1f101e93b906",
        "gas": "0xd4cd7",
        "value": "0x0",
        "input": "0x608034610122576001600160401b0390601f610b6b38819003918201601f19168301918483118484101761010e5780849260209460405283398101031261012257516001600160a01b038116908190036101225760018060a01b03195f5416175f5560405160208101907f8b73c3c69bb8fe3d512ecc4cf759cc79239f7b179b0ffacaa9a75d522b39400f82527f93ab398023282bbbe8643ec643d528b8278428194e3fcc84fe8324e9b3e1767a60408201527fc89efdaa54c0f20c7adf612882df0950f5a951637e0307cdcb4c672f298b8bc660608201524660808201523060a082015260a0815260c08101928184109084111761010e5782604052519020600255610a4490816101278239f35b634e487b7160e01b5f52604160045260245ffd5b5f80fdfe6080604090808252600480361015610015575f80fd5b5f3560e01c9182633644e5151461044a575081633b639e6f1461041057816389782d2e146103e4578163b35bfdc614610081575063b393391b14610057575f80fd5b3461007d575f36600319011261007d575f5490516001600160a01b039091168152602090f35b5f80fd5b823461007d573660031901610100811261007d5760801361007d57608036608319011261007d576044358042116103d6575f5482516331a9108f60e11b8152843581860181905260209590926001600160a01b0392602491889082908490829088165afa9081156103cc575f9161036d575b5083806100fe610494565b1691160361035e5761010e610494565b9186519584898801947f98bedf8cc3414a2996ce566792f72a2abcc6d18a5bd91475f7b33a653c5928bd8652878a8a0152166060880152608087015260643560a087015260a0865260c086019567ffffffffffffffff938188108589111761034c5761014090888a5282519020916002549260e082019361190160f01b855260e28301526101028201526042895201968088108589111761034c5787895251902095865f526001895260ff885f20541661034057506101cb610494565b87519060e4359060c4356101de84610464565b808452828c8501528a51928c84019182528b8401528a835260608301928084108885111761032e57838c5251902087169087160361032057506102279060a435608435896104aa565b1561031257855f5260018852865f20600160ff19825416179055835f541692833b1561007d575f8094848a5180978193630a15fa8b60e01b83528b888401525af1801561030857908895949392916102bc575b50505050917f763d86327afbecf1cb7d5b9fc69643f9198fd501b9cb37375f5ced29d52fc601926102a9610494565b1693825191825286820152a25160018152f35b90919280949550116102f7575050845283907f763d86327afbecf1cb7d5b9fc69643f9198fd501b9cb37375f5ced29d52fc60187808061027a565b604190634e487b7160e01b5f52525ffd5b88513d5f823e3d90fd5b8651638baa579f60e01b8152fd5b63145a1fdd60e31b81529050fd5b86604187634e487b7160e01b5f52525ffd5b637b63160160e11b8152fd5b83604184634e487b7160e01b5f52525ffd5b5084516330cd747160e01b8152fd5b9050873d89116103c5575b601f8101601f1916820167ffffffffffffffff8111838210176103b357899183918a528101031261007d5751838116810361007d57886100f3565b83604186634e487b7160e01b5f52525ffd5b503d610378565b87513d5f823e3d90fd5b5051630407b05b60e31b8152fd5b823461007d57602036600319011261007d57602091355f526001825260ff815f20541690519015158152f35b823461007d575f36600319011261007d57602090517f98bedf8cc3414a2996ce566792f72a2abcc6d18a5bd91475f7b33a653c5928bd8152f35b3461007d575f36600319011261007d576020906002548152f35b6040810190811067ffffffffffffffff82111761048057604052565b634e487b7160e01b5f52604160045260245ffd5b6024356001600160a01b038116810361007d5790565b90928315158061070c575b156106db57821515806106b1575b1561066c576104d181610727565b156106275770014551231950b75fc4402da1732fc9bebe198093069182156105e257839070014551231950b75fc4402da1732fc9bec019600181600196905b6105bc575050509181610582859461058a94610590976040519261053384610464565b7f79be667ef9dcbbac55a06295ce870b07029bfcdb2dce28d959f2815b16f8179884527f483ada7726a3c4655da4fbfc0e1108a8fd17b448a68554199c47d08ffb10d4b86020850152096107d3565b9387096107d3565b90610853565b805190811590816105af575b506105a8575f90081490565b5050505f90565b602091500151155f61059c565b818394959293166105d7575b8009869392821c919082610510565b9586829109956105c8565b60405162461bcd60e51b815260206004820152601a60248201527f6d6f64496e76657273653a204e4f545f494e5645525449424c450000000000006044820152606490fd5b60405162461bcd60e51b815260206004820152601760248201527f7075626c6963206b6579206e6f74206f6e2063757276650000000000000000006044820152606490fd5b60405162461bcd60e51b815260206004820152601f60248201527f696e76616c69642073202d206d616c6c6561626c65207369676e6174757265006044820152606490fd5b507f7fffffffffffffffffffffffffffffff5d576e7357a4501ddfe92f46681b20a08311156104c3565b60405162461bcd60e51b815260206004820152600960248201526834b73b30b634b2103960b91b6044820152606490fd5b5070014551231950b75fc4402da1732fc9bebe1984106104b5565b805190811580610778575b610772576401000003d01990818310801590610764575b6105a857600782602081930151948181800909089180091490565b508160208201511015610749565b50505f90565b50602081015115610732565b6401000003d0198091069081156105e2576001916401000003d219918391835b6107af575050505090565b8284166107c5575b8082910992821c92836107a4565b9381858192099490506107b7565b9190915f60206040516107e581610464565b828152015270014551231950b75fc4402da1732fc9bebe1990068060405161080c81610464565b5f81525f602082015293915b610820575050565b60019182821661083d575b8061083591610853565b911c80610818565b9361084b8561083592610853565b94905061082b565b60409182519161086283610464565b5f83525f6020809401528051801580610a03575b6109fb578251908115806109f0575b6109e75714806109cf575b6109bf5780518251808214806109b0575b1561097157505082810180511561096057516401000003d0198181920880156109455781806108d1855193610784565b92800960030909935b6401000003d019809383519051900883038381116109315783908187800908948251918685039385851161093157860151850393858511610931578593849251986109248a610464565b8952089009089082015290565b634e487b7160e01b5f52601160045260245ffd5b50505050905f90519161095783610464565b81835282015290565b505050905f90519161095783610464565b6401000003d019918203828111610931578291088015610945578484015190858401518303838111610931576109a78492610784565b920809936108da565b508483015185850151146108a1565b5050905f90519161095783610464565b5080830151828401516401000003d019910815610890565b50509250505090565b508484015115610885565b505091505090565b50838201511561087656fea26469706673582212209c69d9e392edab3199fd50a1be9db3f5d79d50f00ceb9edaf9848c991318660564736f6c63430008180033000000000000000000000000057ef64e23666f000b34ae31332854acbd1c8544",
        "nonce": "0x1",
        "chainId": "0x7a69"
      },
      "additionalContracts": [],
      "isFixedGasLimit": false
    },
    {
      "hash": "0x078746dde765a4ff8cb070f325d1ab62a4b14e3b0911fe21a37c5ccdf4a23376",
      "transactionType": "CALL",
      "contractName": "TicketNFT",
      "contractAddress": "0x057ef64e23666f000b34ae31332854acbd1c8544",
      "function": "setVerifier(address)",
      "arguments": [
        "0x261D8c5e9742e6f7f1076Fa1F560894524e19cad"
      ],
      "transaction": {
        "from": "0x90f79bf6eb2c4f870365e785982e1f101e93b906",
        "to": "0x057ef64e23666f000b34ae31332854acbd1c8544",
        "gas": "0xf98d",
        "value": "0x0",
        "input": "0x5437988d000000000000000000000000261d8c5e9742e6f7f1076fa1f560894524e19cad",
        "nonce": "0x2",
        "chainId": "0x7a69"
      },
      "additionalContracts": [],
      "isFixedGasLimit": false
    },
    {
      "hash": "0xfd015b882e36f9f45285fc1aed42966a6141fdb0f376d7eab73801d59d97abfc",
      "transactionType": "CALL",
      "contractName": "TicketNFT",
      "contractAddress": "0x057ef64e23666f000b34ae31332854acbd1c8544",
      "function": "createEvent(string,string,string,uint256,uint256)",
      "arguments": [
        "Motion Design Workshop 2025",
        "2026-04-20",
        "Creative Hall, Jaksel",
        "30000000000000000",
        "30"
      ],
      "transaction": {
        "from": "0x90f79bf6eb2c4f870365e785982e1f101e93b906",
        "to": "0x057ef64e23666f000b34ae31332854acbd1c8544",
        "gas": "0x392c2",
        "value": "0x0",
        "input": "0xf5f00d8400000000000000000000000000000000000000000000000000000000000000a000000000000000000000000000000000000000000000000000000000000000e00000000000000000000000000000000000000000000000000000000000000120000000000000000000000000000000000000000000000000006a94d74f430000000000000000000000000000000000000000000000000000000000000000001e000000000000000000000000000000000000000000000000000000000000001b4d6f74696f6e2044657369676e20576f726b73686f7020323032350000000000000000000000000000000000000000000000000000000000000000000000000a323032362d30342d323000000000000000000000000000000000000000000000000000000000000000000000000000000000000000000000000000000000001543726561746976652048616c6c2c204a616b73656c0000000000000000000000",
        "nonce": "0x3",
        "chainId": "0x7a69"
      },
      "additionalContracts": [],
      "isFixedGasLimit": false
    },
    {
      "hash": "0xe6e4d96e351aacd59fc9ee7bf3a2329b2e2b17f7fbfc28bb37db426e63b9c062",
      "transactionType": "CALL",
      "contractName": "TicketNFT",
      "contractAddress": "0x057ef64e23666f000b34ae31332854acbd1c8544",
      "function": "createEvent(string,string,string,uint256,uint256)",
      "arguments": [
        "Indonesia Open: Finals",
        "2026-06-12",
        "Istora Senayan",
        "120000000000000000",
        "5000"
      ],
      "transaction": {
        "from": "0x90f79bf6eb2c4f870365e785982e1f101e93b906",
        "to": "0x057ef64e23666f000b34ae31332854acbd1c8544",
        "gas": "0x3921b",
        "value": "0x0",
        "input": "0xf5f00d8400000000000000000000000000000000000000000000000000000000000000a000000000000000000000000000000000000000000000000000000000000000e0000000000000000000000000000000000000000000000000000000000000012000000000000000000000000000000000000000000000000001aa535d3d0c000000000000000000000000000000000000000000000000000000000000000013880000000000000000000000000000000000000000000000000000000000000016496e646f6e65736961204f70656e3a2046696e616c7300000000000000000000000000000000000000000000000000000000000000000000000000000000000a323032362d30362d313200000000000000000000000000000000000000000000000000000000000000000000000000000000000000000000000000000000000e4973746f72612053656e6179616e000000000000000000000000000000000000",
        "nonce": "0x4",
        "chainId": "0x7a69"
      },
      "additionalContracts": [],
      "isFixedGasLimit": false
    },
    {
      "hash": "0xbedf59801061a66f90d7a116c0764c9ccf6b576a50b3d0223b9c4d5df49e420e",
      "transactionType": "CALL",
      "contractName": "TicketNFT",
      "contractAddress": "0x057ef64e23666f000b34ae31332854acbd1c8544",
      "function": "createEvent(string,string,string,uint256,uint256)",
      "arguments": [
        "Festival Kuliner Nusantara",
        "2026-02-30",
        "Lapangan Puputan, Bali",
        "15000000000000000",
        "200"
      ],
      "transaction": {
        "from": "0x90f79bf6eb2c4f870365e785982e1f101e93b906",
        "to": "0x057ef64e23666f000b34ae31332854acbd1c8544",
        "gas": "0x3c8a3",
        "value": "0x0",
        "input": "0xf5f00d8400000000000000000000000000000000000000000000000000000000000000a000000000000000000000000000000000000000000000000000000000000000e0000000000000000000000000000000000000000000000000000000000000012000000000000000000000000000000000000000000000000000354a6ba7a1800000000000000000000000000000000000000000000000000000000000000000c8000000000000000000000000000000000000000000000000000000000000001a466573746976616c204b756c696e6572204e7573616e74617261000000000000000000000000000000000000000000000000000000000000000000000000000a323032362d30322d33300000000000000000000000000000000000000000000000000000000000000000000000000000000000000000000000000000000000164c6170616e67616e205075707574616e2c2042616c6900000000000000000000",
        "nonce": "0x5",
        "chainId": "0x7a69"
      },
      "additionalContracts": [],
      "isFixedGasLimit": false
    },
    {
      "hash": "0x663350f90f51828a4f41f9fc617a51d77905f81896299d8d911193c0d338331a",
      "transactionType": "CALL",
      "contractName": "TicketNFT",
      "contractAddress": "0x057ef64e23666f000b34ae31332854acbd1c8544",
      "function": "createEvent(string,string,string,uint256,uint256)",
      "arguments": [
        "Stand Up Comedy Special",
        "2026-02-28",
        "Teater Besar, TIM",
        "40000000000000000",
        "300"
      ],
      "transaction": {
        "from": "0x90f79bf6eb2c4f870365e785982e1f101e93b906",
        "to": "0x057ef64e23666f000b34ae31332854acbd1c8544",
        "gas": "0x3c816",
        "value": "0x0",
        "input": "0xf5f00d8400000000000000000000000000000000000000000000000000000000000000a000000000000000000000000000000000000000000000000000000000000000e00000000000000000000000000000000000000000000000000000000000000120000000000000000000000000000000000000000000000000008e1bc9bf040000000000000000000000000000000000000000000000000000000000000000012c00000000000000000000000000000000000000000000000000000000000000175374616e6420557020436f6d656479205370656369616c000000000000000000000000000000000000000000000000000000000000000000000000000000000a323032362d30322d32380000000000000000000000000000000000000000000000000000000000000000000000000000000000000000000000000000000000115465617465722042657361722c2054494d000000000000000000000000000000",
        "nonce": "0x6",
        "chainId": "0x7a69"
      },
      "additionalContracts": [],
      "isFixedGasLimit": false
    },
    {
      "hash": "0x6f7cd244f4cd64e90d3f3df14827047bca8147715dc84e98b5885e099c01047e",
      "transactionType": "CALL",
      "contractName": "TicketNFT",
      "contractAddress": "0x057ef64e23666f000b34ae31332854acbd1c8544",
      "function": "createEvent(string,string,string,uint256,uint256)",
      "arguments": [
        "Yoga & Meditation Retreat",
        "2026-03-10",
        "Ubud Sanctuary",
        "80000000000000000",
        "20"
      ],
      "transaction": {
        "from": "0x90f79bf6eb2c4f870365e785982e1f101e93b906",
        "to": "0x057ef64e23666f000b34ae31332854acbd1c8544",
        "gas": "0x3923d",
        "value": "0x0",
        "input": "0xf5f00d8400000000000000000000000000000000000000000000000000000000000000a000000000000000000000000000000000000000000000000000000000000000e00000000000000000000000000000000000000000000000000000000000000120000000000000000000000000000000000000000000000000011c37937e08000000000000000000000000000000000000000000000000000000000000000000140000000000000000000000000000000000000000000000000000000000000019596f67612026204d656469746174696f6e205265747265617400000000000000000000000000000000000000000000000000000000000000000000000000000a323032362d30332d313000000000000000000000000000000000000000000000000000000000000000000000000000000000000000000000000000000000000e556275642053616e637475617279000000000000000000000000000000000000",
        "nonce": "0x7",
        "chainId": "0x7a69"
      },
      "additionalContracts": [],
      "isFixedGasLimit": false
    }
  ],
  "receipts": [
    {
      "status": "0x1",
      "cumulativeGasUsed": "0x28e9b1",
      "logs": [
        {
          "address": "0x057ef64e23666f000b34ae31332854acbd1c8544",
          "topics": [
            "0x8be0079c531659141344cd1fd0a4f28419497f9722a3daafe3b4186f6b6457e0",
            "0x0000000000000000000000000000000000000000000000000000000000000000",
            "0x00000000000000000000000090f79bf6eb2c4f870365e785982e1f101e93b906"
          ],
          "data": "0x",
          "blockHash": "0x7bbca102125592ff23fcf0974c3c5d66e32d314eac0c9c18a3bc21a20edbfdfd",
          "blockNumber": "0x1",
          "blockTimestamp": "0x69730792",
          "transactionHash": "0xc33cbda5a8e37c2e933cd0063da91f186f5dceb9d496c97c52e68ffcae4d464c",
          "transactionIndex": "0x0",
          "logIndex": "0x0",
          "removed": false
        }
      ],
      "logsBloom": "0x00000000000000000000000000000000000000000000000000800000000000000000000000000000000000000000000000000000000000000000000000000000000000000000000000000000000000000001000000000000000000000000000000000000020000000000000000000800000000000000000000000000000000400000000000000000000000000000000000000004000000000400000000000000000000000000008000000000000000000000000000000000000000000000000000000000000000000000000000000000400000000000000000000000000020000000000000000000000010000000000000000000000000000000000000080000",
      "type": "0x2",
      "transactionHash": "0xc33cbda5a8e37c2e933cd0063da91f186f5dceb9d496c97c52e68ffcae4d464c",
      "transactionIndex": "0x0",
      "blockHash": "0x7bbca102125592ff23fcf0974c3c5d66e32d314eac0c9c18a3bc21a20edbfdfd",
      "blockNumber": "0x1",
      "gasUsed": "0x28e9b1",
      "effectiveGasPrice": "0x3b9aca01",
      "blobGasPrice": "0x1",
      "from": "0x90f79bf6eb2c4f870365e785982e1f101e93b906",
      "to": null,
      "contractAddress": "0x057ef64e23666f000b34ae31332854acbd1c8544"
    },
    {
      "status": "0x1",
      "cumulativeGasUsed": "0xa3b1c",
      "logs": [],
      "logsBloom": "0x00000000000000000000000000000000000000000000000000000000000000000000000000000000000000000000000000000000000000000000000000000000000000000000000000000000000000000000000000000000000000000000000000000000000000000000000000000000000000000000000000000000000000000000000000000000000000000000000000000000000000000000000000000000000000000000000000000000000000000000000000000000000000000000000000000000000000000000000000000000000000000000000000000000000000000000000000000000000000000000000000000000000000000000000000000000",
      "type": "0x2",
      "transactionHash": "0xcbd20b394660358797bfeb824faf7f4ccf8fe8754f6a0a5c8e47d7e37a5acd27",
      "transactionIndex": "0x0",
      "blockHash": "0x8da04eb7d3088b6e1f8f252873b273d6096a5e4bb4de399e9b7bae3dad580902",
      "blockNumber": "0x2",
      "gasUsed": "0xa3b1c",
      "effectiveGasPrice": "0x357c6184",
      "blobGasPrice": "0x1",
      "from": "0x90f79bf6eb2c4f870365e785982e1f101e93b906",
      "to": null,
      "contractAddress": "0x261d8c5e9742e6f7f1076fa1f560894524e19cad"
    },
    {
      "status": "0x1",
      "cumulativeGasUsed": "0xaefc9",
      "logs": [],
      "logsBloom": "0x00000000000000000000000000000000000000000000000000000000000000000000000000000000000000000000000000000000000000000000000000000000000000000000000000000000000000000000000000000000000000000000000000000000000000000000000000000000000000000000000000000000000000000000000000000000000000000000000000000000000000000000000000000000000000000000000000000000000000000000000000000000000000000000000000000000000000000000000000000000000000000000000000000000000000000000000000000000000000000000000000000000000000000000000000000000",
      "type": "0x2",
      "transactionHash": "0x078746dde765a4ff8cb070f325d1ab62a4b14e3b0911fe21a37c5ccdf4a23376",
      "transactionIndex": "0x1",
      "blockHash": "0x8da04eb7d3088b6e1f8f252873b273d6096a5e4bb4de399e9b7bae3dad580902",
      "blockNumber": "0x2",
      "gasUsed": "0xb4ad",
      "effectiveGasPrice": "0x357c6184",
      "blobGasPrice": "0x1",
      "from": "0x90f79bf6eb2c4f870365e785982e1f101e93b906",
      "to": "0x057ef64e23666f000b34ae31332854acbd1c8544",
      "contractAddress": null
    },
    {
      "status": "0x1",
      "cumulativeGasUsed": "0xd860e",
      "logs": [
        {
          "address": "0x057ef64e23666f000b34ae31332854acbd1c8544",
          "topics": [
            "0x42e6867e52299b45991308391cccb9ee79466d194059ff10fc15c2d88f0ea061",
            "0x0000000000000000000000000000000000000000000000000000000000000001"
          ],
          "data": "0x0000000000000000000000000000000000000000000000000000000000000060000000000000000000000000000000000000000000000000000000000000001e000000000000000000000000000000000000000000000000006a94d74f430000000000000000000000000000000000000000000000000000000000000000001b4d6f74696f6e2044657369676e20576f726b73686f7020323032350000000000",
          "blockHash": "0x8da04eb7d3088b6e1f8f252873b273d6096a5e4bb4de399e9b7bae3dad580902",
          "blockNumber": "0x2",
          "blockTimestamp": "0x69730792",
          "transactionHash": "0xfd015b882e36f9f45285fc1aed42966a6141fdb0f376d7eab73801d59d97abfc",
          "transactionIndex": "0x2",
          "logIndex": "0x0",
          "removed": false
        }
      ],
      "logsBloom": "0x00000000000000000000000000000000000000000000000000000000000000000000000000000000000000000000000000000000000000000000000000040000000000000000000000000000000000000000000000040000000000000000000000000000001000000000000000000000000000000000000000000000000000000000000000000000000000000000000000000004000000000000000000000000000000000000008000000000000000000000000000000000000000000000000000000000000000000000004000000000000000000000000000000000000040000000000000000000000000000000000020000000000000000000000000080000",
      "type": "0x2",
      "transactionHash": "0xfd015b882e36f9f45285fc1aed42966a6141fdb0f376d7eab73801d59d97abfc",
      "transactionIndex": "0x2",
      "blockHash": "0x8da04eb7d3088b6e1f8f252873b273d6096a5e4bb4de399e9b7bae3dad580902",
      "blockNumber": "0x2",
      "gasUsed": "0x29645",
      "effectiveGasPrice": "0x357c6184",
      "blobGasPrice": "0x1",
      "from": "0x90f79bf6eb2c4f870365e785982e1f101e93b906",
      "to": "0x057ef64e23666f000b34ae31332854acbd1c8544",
      "contractAddress": null
    },
    {
      "status": "0x1",
      "cumulativeGasUsed": "0x101bdb",
      "logs": [
        {
          "address": "0x057ef64e23666f000b34ae31332854acbd1c8544",
          "topics": [
            "0x42e6867e52299b45991308391cccb9ee79466d194059ff10fc15c2d88f0ea061",
            "0x0000000000000000000000000000000000000000000000000000000000000002"
          ],
          "data": "0x0000000000000000000000000000000000000000000000000000000000000060000000000000000000000000000000000000000000000000000000000000138800000000000000000000000000000000000000000000000001aa535d3d0c00000000000000000000000000000000000000000000000000000000000000000016496e646f6e65736961204f70656e3a2046696e616c7300000000000000000000",
          "blockHash": "0x8da04eb7d3088b6e1f8f252873b273d6096a5e4bb4de399e9b7bae3dad580902",
          "blockNumber": "0x2",
          "blockTimestamp": "0x69730792",
          "transactionHash": "0xe6e4d96e351aacd59fc9ee7bf3a2329b2e2b17f7fbfc28bb37db426e63b9c062",
          "transactionIndex": "0x3",
          "logIndex": "0x1",
          "removed": false
        }
      ],
      "logsBloom": "0x04000000000000000000000000000000000000000000000000000000000000000000000000000000000000000000000000000000000000000000000000000000000000000000000000000000000000000000000000000000000000000000000000000000001000000000000000000000000000000000000000000000000000000000000000000000000000000000000000000004000000000000000000000000000000000000008000000100000000000000000000000000000000000000000000000000000000000000004000000000000000000000000000000000000000000000000000000000000000000000000020000000008000000000000000080000",
      "type": "0x2",
      "transactionHash": "0xe6e4d96e351aacd59fc9ee7bf3a2329b2e2b17f7fbfc28bb37db426e63b9c062",
      "transactionIndex": "0x3",
      "blockHash": "0x8da04eb7d3088b6e1f8f252873b273d6096a5e4bb4de399e9b7bae3dad580902",
      "blockNumber": "0x2",
      "gasUsed": "0x295cd",
      "effectiveGasPrice": "0x357c6184",
      "blobGasPrice": "0x1",
      "from": "0x90f79bf6eb2c4f870365e785982e1f101e93b906",
      "to": "0x057ef64e23666f000b34ae31332854acbd1c8544",
      "contractAddress": null
    },
    {
      "status": "0x1",
      "cumulativeGasUsed": "0x12b22c",
      "logs": [
        {
          "address": "0x057ef64e23666f000b34ae31332854acbd1c8544",
          "topics": [
            "0x42e6867e52299b45991308391cccb9ee79466d194059ff10fc15c2d88f0ea061",
            "0x0000000000000000000000000000000000000000000000000000000000000003"
          ],
          "data": "0x000000000000000000000000000000000000000000000000000000000000006000000000000000000000000000000000000000000000000000000000000000c800000000000000000000000000000000000000000000000000354a6ba7a18000000000000000000000000000000000000000000000000000000000000000001a466573746976616c204b756c696e6572204e7573616e74617261000000000000",
          "blockHash": "0x8da04eb7d3088b6e1f8f252873b273d6096a5e4bb4de399e9b7bae3dad580902",
          "blockNumber": "0x2",
          "blockTimestamp": "0x69730792",
          "transactionHash": "0xbedf59801061a66f90d7a116c0764c9ccf6b576a50b3d0223b9c4d5df49e420e",
          "transactionIndex": "0x4",
          "logIndex": "0x2",
          "removed": false
        }
      ],
      "logsBloom": "0x00000000000000000000000000000000000000000000000000000000000000000000000000000000000000000000000000000000020000000000000000000000000000000000000000000000000000000000000000000000000000000000000000000000001000000000000000000000000000000000000000000000000000000000000000000000000000000000000000000004000000000000000000000000000000000000008000000000000000000000000000800000000000000000400000000000000000000000004000000000000000000000000000000000000000000000000000000000000000000000000020000000000000000000000000080000",
      "type": "0x2",
      "transactionHash": "0xbedf59801061a66f90d7a116c0764c9ccf6b576a50b3d0223b9c4d5df49e420e",
      "transactionIndex": "0x4",
      "blockHash": "0x8da04eb7d3088b6e1f8f252873b273d6096a5e4bb4de399e9b7bae3dad580902",
      "blockNumber": "0x2",
      "gasUsed": "0x29651",
      "effectiveGasPrice": "0x357c6184",
      "blobGasPrice": "0x1",
      "from": "0x90f79bf6eb2c4f870365e785982e1f101e93b906",
      "to": "0x057ef64e23666f000b34ae31332854acbd1c8544",
      "contractAddress": null
    },
    {
      "status": "0x1",
      "cumulativeGasUsed": "0x15481d",
      "logs": [
        {
          "address": "0x057ef64e23666f000b34ae31332854acbd1c8544",
          "topics": [
            "0x42e6867e52299b45991308391cccb9ee79466d194059ff10fc15c2d88f0ea061",
            "0x0000000000000000000000000000000000000000000000000000000000000004"
          ],
          "data": "0x0000000000000000000000000000000000000000000000000000000000000060000000000000000000000000000000000000000000000000000000000000012c000000000000000000000000000000000000000000000000008e1bc9bf04000000000000000000000000000000000000000000000000000000000000000000175374616e6420557020436f6d656479205370656369616c000000000000000000",
          "blockHash": "0x8da04eb7d3088b6e1f8f252873b273d6096a5e4bb4de399e9b7bae3dad580902",
          "blockNumber": "0x2",
          "blockTimestamp": "0x69730792",
          "transactionHash": "0x663350f90f51828a4f41f9fc617a51d77905f81896299d8d911193c0d338331a",
          "transactionIndex": "0x5",
          "logIndex": "0x3",
          "removed": false
        }
      ],
      "logsBloom": "0x00000000000000000000000000000000000000000000000000000000000000000000000000000000000000000000000000000000000000000000000000000000000000000000000000000000000000000000000000000000000000000000000008000000001000000000000000000000000000000000000000000000000000000000000000000000000000000000000000000004000000000000000000000000000000000000008000000000000000000000000000000000002000000000000000000000000000000000004000000000000000008000000000000000000000000000000000000000000000000000000020000000000000000000000000080000",
      "type": "0x2",
      "transactionHash": "0x663350f90f51828a4f41f9fc617a51d77905f81896299d8d911193c0d338331a",
      "transactionIndex": "0x5",
      "blockHash": "0x8da04eb7d3088b6e1f8f252873b273d6096a5e4bb4de399e9b7bae3dad580902",
      "blockNumber": "0x2",
      "gasUsed": "0x295f1",
      "effectiveGasPrice": "0x357c6184",
      "blobGasPrice": "0x1",
      "from": "0x90f79bf6eb2c4f870365e785982e1f101e93b906",
      "to": "0x057ef64e23666f000b34ae31332854acbd1c8544",
      "contractAddress": null
    },
    {
      "status": "0x1",
      "cumulativeGasUsed": "0x295e5",
      "logs": [
        {
          "address": "0x057ef64e23666f000b34ae31332854acbd1c8544",
          "topics": [
            "0x42e6867e52299b45991308391cccb9ee79466d194059ff10fc15c2d88f0ea061",
            "0x0000000000000000000000000000000000000000000000000000000000000005"
          ],
          "data": "0x00000000000000000000000000000000000000000000000000000000000000600000000000000000000000000000000000000000000000000000000000000014000000000000000000000000000000000000000000000000011c37937e0800000000000000000000000000000000000000000000000000000000000000000019596f67612026204d656469746174696f6e205265747265617400000000000000",
          "blockHash": "0xce4a1dc92f006e7e1412cf64d1edfaca05c10d180bae195615ce46aaca2289ee",
          "blockNumber": "0x3",
          "blockTimestamp": "0x69730793",
          "transactionHash": "0x6f7cd244f4cd64e90d3f3df14827047bca8147715dc84e98b5885e099c01047e",
          "transactionIndex": "0x0",
          "logIndex": "0x0",
          "removed": false
        }
      ],
      "logsBloom": "0x00000000000000000000000000000000000000000000000000000000000000000000000000000000000000000000000000000000000000000000000000000000000010000000000000000000000000000000000000000000000000000000000000000000001000000000000000000000000000000000000000000000000000000000000000000000000000000000001000000804000000000000000000000000000000000000008000000000000000000000000000000000000000000000000000000000000000000000004000000000000000000000000000000000000000000000000000000000000000000000000020000000000000000000000000080000",
      "type": "0x2",
      "transactionHash": "0x6f7cd244f4cd64e90d3f3df14827047bca8147715dc84e98b5885e099c01047e",
      "transactionIndex": "0x0",
      "blockHash": "0xce4a1dc92f006e7e1412cf64d1edfaca05c10d180bae195615ce46aaca2289ee",
      "blockNumber": "0x3",
      "gasUsed": "0x295e5",
      "effectiveGasPrice": "0x2f6bf996",
      "blobGasPrice": "0x1",
      "from": "0x90f79bf6eb2c4f870365e785982e1f101e93b906",
      "to": "0x057ef64e23666f000b34ae31332854acbd1c8544",
      "contractAddress": null
    }
  ],
  "libraries": [],
  "pending": [],
  "returns": {},
  "timestamp": 1769146260178,
  "chain": 31337,
  "commit": "4fa6dad"
}